:100E2600C0F9A4B0999282F880908883C6A1868E74
:100D270002110000C101020E0000040800000000CB
:100D3700041300000000041800000000021C00005B
:100D4700021E0000020C0000011701011000C18003
:100DE700758915E4F58CF58A758DD8758BF0C2A9D0
:090DF700D2ABD2AFD28CD28E2215
:10001E00E5106003020244F521AF217401A8070820
:10002E008002C333D8FCFD7F06120E5DE521B408B5
:10003E0000400302022C90004BF828287302006344
:10004E000200690200A20200EE02013802018102E2
:10005E0001C7020209900E350202247F407E427DC6
:10006E000F7C00AB0BAA0AA909A808C312093650C7
:10007E000302022C7B407A42790F7800AF0BAE0A56
:10008E00AD09AC08120CB074262FF582740E3EF535
:10009E00830202247FA07E867D017C00AB0BAA0A20
:1000AE00A909A808C3120936500302022C7B407A14
:1000BE0042790F7800AF0BAE0AAD09AC08120CB046
:1000CE00AC00AD01AE02AF037BA07A867901780059
:1000DE00120CB074262FF582740E3EF583020224A4
:1000EE00E47F107E27FDFCAB0BAA0AA909A808C362
:1000FE00120936500302022C7BA07A867901780011
:10010E00AF0BAE0AAD09AC08120CB0AC00AD01AE2F
:10011E0002AF03E47B107A27F9F8120CB074262F85
:10012E00F582740E3EF583020224E47FE87E03FD21
:10013E00FCAB0BAA0AA909A808C312093650030280
:10014E00022CE47B107A27F9F8AF0BAE0AAD09AC9E
:10015E0008120CB0AC00AD01AE02AF03E47BE87A3E
:10016E0003F9F8120CB074262FF582740E3EF58347
:10017E00020224E47F64FEFDFCAB0BAA0AA909A8C7
:10018E0008C3120936500302022CE47BE87A03F905
:10019E00F8AF0BAE0AAD09AC08120CB0AC00AD0155
:1001AE00AE02AF03E47B64FAF9F8120CB074262F9A
:1001BE00F582740E3EF583805DE47F0AFEFDFCAB96
:1001CE000BAA0AA909A808C31209364051E47B6498
:1001DE00FAF9F8AF0BAE0AAD09AC08120CB0AC00D0
:1001EE00AD01AE02AF03E47B0AFAF9F8120CB0745B
:1001FE00262FF582740E3EF583801BE47B0AFAF9F6
:10020E00F8AF0BAE0AAD09AC08120CB074262BF584
:10021E0082740E3AF583E493FD7F07120E5D7F0A1A
:10022E00120E147DFF7F07120E5D0521E521C3948A
:10023E00085003020027E5106401600302047DF5F7
:10024E0021AF217401A807088002C333D8FCFD7FBB
:10025E0006120E5DE521B40800400302046590020B
:10026E0073F828287302028B0202900202CC02035A
:10027E001B0203680203B40203FD0204427DC8029E
:10028E0004607F407E427D0F7C00AB1BAA1AA91929
:10029E00A818C312093650030204657B407A4279CE
:1002AE000F7800AF1BAE1AAD19AC18120CB0742635
:1002BE002FF582740E3EF583E493FD0204607FA059
:1002CE007E867D017C00AB1BAA1AA919A818C31241
:1002DE00093650030204657B407A42790F7800AFED
:1002EE001BAE1AAD19AC18120CB0AC00AD01AE02BB
:1002FE00AF037BA07A8679017800120CB074262F9A
:10030E00F582740E3EF583E493FD020460E47F10E3
:10031E007E27FDFCAB1BAA1AA919A818C312093611
:10032E0050030204657BA07A8679017800AF1BAE7C
:10033E001AAD19AC18120CB0AC00AD01AE02AF0381
:10034E00E47B107A27F9F8120CB074262FF582741C
:10035E000E3EF583E493FD020460E47FE87E03FD28
:10036E00FCAB1BAA1AA919A818C31209365003020E
:10037E000465E47B107A27F9F8AF1BAE1AAD19AC01
:10038E0018120CB0AC00AD01AE02AF03E47BE87AFC
:10039E0003F9F8120CB074262FF582740E3EF58315
:1003AE00E493FD020460E47F64FEFDFCAB1BAA1A1D
:1003BE00A919A818C31209365003020465E47BE894
:1003CE007A03F9F8AF1BAE1AAD19AC18120CB0AC1B
:1003DE0000AD01AE02AF03E47B64FAF9F8120CB083
:1003EE0074262FF582740E3EF583E493FD8063E44C
:1003FE007F0AFEFDFCAB1BAA1AA919A818C3120985
:10040E00364054E47B64FAF9F8AF1BAE1AAD19AC62
:10041E0018120CB0AC00AD01AE02AF03E47B0AFAC9
:10042E00F9F8120CB074262FF582740E3EF583E4A3
:10043E0093FD801EE47B0AFAF9F8AF1BAE1AAD19D4
:10044E00AC18120CB074262BF582740E3AF583E4B8
:10045E0093FD7F07120E5D7F0A120E147DFF7F073C
:10046E00120E5D0521E521C39408500302024FE5EB
:10047E001064026003020575F521AF217401A8070F
:10048E00088002C333D8FCFD7F06120E5DE521B451
:10049E000800400302055D9004ACF828287302049E
:1004AE00C40204C90204CE0204D80204D80204DC39
:1004BE000205030205357DC10205587DBF020558B0
:1004CE00E517900E2693FD0205587DFF807CE517FB
:1004DE00B40106AE1CAF1D8004AE1EAF1F7C007DA6
:1004EE00641208D374262FF582740E3EF583E493BE
:1004FE00547FFD8055E517B40106AE1CAF1D800478
:10050E00AE1EAF1F7C007D641208D37E007F0ACF23
:10051E00CDCFCECCCE1208D374262FF582740E3EDC
:10052E00F583E493FD8023E517B40106AE1CAF1DE1
:10053E008004AE1EAF1F7C007D0A1208D374262DD8
:10054E00F582740E3CF583E493FD7F07120E5D7FFA
:10055E000A120E147DFF7F07120E5D0521E521C3E1
:07056E009408500302048809
:010575002263
:100B8B0020B3217F0A120E1420B31920B3051200D3
:100B9B001E80F8E5102401FFE433FE7C007D031278
:100BAB0008D38D1020B228E510640270227F0A1240
:100BBB000E1420B21A20B20512001E80F8E517B4ED
:100BCB0001057517038008E517B40303751701209A
:100BDB00B1167F0A120E1420B10E20B10512001EA1
:100BEB0080F8851E0C851F0D20B02D7F0A120E1468
:100BFB0020B025D20120B00512001E80F8C3E50FEE
:100C0B009464E50E94004002B200C201850B168578
:090C1B000A15850914850813224D
:100A1A00E517B401397F01120D84AC07E412081EF0
:100A2A00E4FBFA79A0784012066EE4FBFA797F7843
:100A3A0043120777E4FBFA79C8784212066EE4FBA0
:100A4A00FAF9783F12057D1208528E1C8F1DE517A0
:100A5A00B403397F03120D84AC07E412081EE4FBC9
:100A6A00FA79A0784012066EE4FBFA797F7843128D
:100A7A000777E4FBFA79C8784212066EE4FBFAF9C2
:100A8A00783F12057D1208528E1E8F1F3000497F53
:100A9A0004120CF4D3E51F950DE51E950C4002C215
:100AAA0080AF16AE15AD14AC13AB0BAA0AA909A8F0
:100ABA0008D31209364002C281E5107004C282804E
:100ACA0010E510B40104C2838007E510B40202C223
:100ADA0084D285D286D287227DFF7F04120E5D22C0
:100DCB00E4FD7F05120E5D7DFF7F04120E5D120D9B
:0C0DDB00E7120A1A120B8B12001E80F5A2
:03001B00020AEAEC
:100AEA00C0E0C0F0C083C082C0D075D000C000C0D2
:100AFA0001C002C003C004C005C006C007758DD876
:100B0A00758BF0300108050FE50F7002050E200104
:100B1A0006750E00750F000512E5127002051164C4
:100B2A00C845117041AF8CEFFEAD8A7C00E42DFF01
:100B3A00EC3EC313FEEF13FFE48F0B8E0AF509F5A3
:100B4A0008AB0BAA0AA909A8087F407E427D0F12AA
:100B5A000CB08F1B8E1A8D198C18758C00758A0033
:100B6A00751100751200D007D006D005D004D00345
:100B7A00D002D001D000D0D0D082D083D0F0D0E043
:010B8A003238
:100E1400AD071FED600B7E78EED3940040F21E8088
:010E2400F7D6
:010E250022AA
:100CF400EF24FB601314601914601F24037023E5B0
:100D0400A0541F4480F5A022E5A0541F44A0F5A0E0
:100D140022E5A0541F44C0F5A022E5A0541F44E0DE
:030D2400F5A02215
:060E5D00120CF48D80224E
:040E4500D2A07F05B3
:080E490000AE071FEE70F92254
:0F0E3600D2A1120E45C2A17F05120E49C2A02201
:0C0E5100C2A1120E45D2A17F05020E497D
:10000300C2A0A20292A17F05120E49120E45C2A000
:07001300D2A17F05020E4996
:030E0000120D5878
:100E0300120E45A2A19202C2A07F05120E49A202B0
:010E130022BC
:020D5800AD07E5
:100D5A00E4FCC2A07F05120E49ED30E704D2A1805F
:100D6A0002C2A17F05120E49D2A0ED25E0FD7F0542
:090D7A00120E490CBC08DBC2A0FA
:010D8300224D
:100DAE00E4FC120E45ED25E0FD30A103430501C222
:0C0DBE00A07F05120E490CBC08E8AF0530
:010DCA002206
:020D8400AB07BB
:100D8600120E367F90120E00AF03120E00120E36B0
:100D96007F91120D58120E03120DAEAD07D202123C
:070DA6000003120E51AF051E
:010DAD002223
:100576000208BEE86480F8E933E83360110460F0ED
:10058600ED33EC337009E8FCE9FDEAFEEBFF2204EB
:1005960060DED3EB9FEA9EE99DE8C2E78CF0C2F7E6
:1005A60095F0400CE8CCF8E9CDF9EACEFAEBCFFBB2
:1005B60012088985D0F05804700320D5B3E804707A
:1005C600075002B2D50208C892D5EC0460F7E4CC15
:1005D600C0E0C398F8603B94186008400DD0E0FB7B
:1005E6000208A0E4FBFAC9FC8028E830E406E4C966
:1005F600FBE4CAFCE830E305E4C9CACBFCE85407CF
:100606006010F8C3E913F9EA13FAEB13FBEC13FCD9
:10061600D8F130F52FC3E49CFCEF9BFFEE9AFEED7C
:1006260099FDD0E0FBEF4E4D4C701222DB03020821
:10063600C5EC2CFCEF33FFEE33FEED33FDED30E77A
:10064600EB0208A0EF2BFFEE3AFEED39FDD0E0FB02
:1006560050130BBB00030208C8ED13FDEE13FEEFAB
:0806660013FFEC13FC0208A0D5
:10066E00EC4D6011E8497017ED33EC3304600DE486
:10067E00FCFFFEFD22E933E8330470F80208BE12D7
:10068E00088958046009E4CC2481500628500902D8
:10069E0008C82840030208C5C0E0EB4A7044B98080
:1006AE0006D0E0FB0208B4EF4E701CBD8008EBFFD5
:1006BE00EAFEE9FD80EBE98DF0A4FEE5F0020757B6
:1006CE00E9CDF9EAFEEBFFEF89F0A4FCE5F0CE8967
:1006DE00F0A42EFFE435F0CD89F0A42DFEE435F024
:1006EE008067EF4E7005BD80D780C3EF8BF0A4AC52
:1006FE00F0EE8BF0A42CFCE435F0F8EF8AF0A42C8D
:10070E00E5F038FCE433CB8DF0A42CFCE5F03BF89F
:10071E00EE8AF0A42CFCE5F038F8E433CF89F0A48F
:10072E002CFCE5F038CF3400CE89F0A42FFFE5F095
:10073E003EFEE433C98DF0A42EFEE5F039CD8AF0ED
:10074E00A42FFFE5F03EFEE43DFD33D0E0FB500765
:10075E000BBB000F0208C8EC2CFCEF33FFEE33FE90
:06076E00ED33FD0208A0BE
:100774000208C8EC5D046005E8590470030208BE71
:10078400120889580460F6EC4860F2EC7004FDFE2F
:10079400FF22C860DB2481C85009C3986002500658
:1007A4000208C59850CAF582E9294B4A7005AB8204
:1007B4000208B475F0007C1A7880C3EF9BEE9AEDC2
:1007C40099400DC3EF9BFFEE9AFEED99FDE842F0D0
:1007D400DC23ACF0D0E0FFD0E0FED0E0FDAB822023
:1007E400E7101BEB60BAEC2CFCEF33FFEE33FEEDAD
:1007F40033FD0208A0E803F830E705C0F075F00007
:10080400EF2FFFEE33FEED33FD40B830E7C280AA90
:1008140075F020800E75F010800575F0087D007E5F
:10082400007F003392D530D503120928EC334010F1
:10083400EF33FFEE33FEED33FDEC33FCD5F0ED2268
:0E084400E5F0247EA2D513CC92E7CDCEFF22A4
:10085200EDD2E7CD33EC3392D524814006E4FFFE9E
:10086200FDFC22FCE4CFCECDCC24E0501174FF80FD
:10087200EDC3CC13CCCD13CDCE13CECF13CF04709A
:07088200F030D5DE02092869
:10088900E9D2E7C933E833F892D5EDD2E7CD33ECB5
:0708990033FC5002B2D5222E
:1008A000EC30E7100FBF000C0EBE00080DBD0004B9
:1008B0000BEB6014A2D5EB13FCED92E7FD2274FF65
:1008C000FCFDFEFF22E480F8A2D574FF13FC7D80BE
:0308D000E480EFD2
:03000000020C24CB
:0C0C2400787FE4F6D8FD758121020C6B8E
:1008D300BC000BBE0029EF8DF084FFADF022E4CC09
:1008E300F875F008EF2FFFEE33FEEC33FCEE9DECD2
:1008F300984005FCEE9DFE0FD5F0E9E4CEFD22ED18
:10090300F8F5F0EE8420D21CFEADF075F008EF2F61
:10091300FFED33FD4007985006D5F0F222C398FD52
:050923000FD5F0EA22EF
:100CB000C2D5E830E70FB2D5E4C39BFBE49AFAE46F
:100CC00099F9E498F8EC30E717B2D5120CE612095E
:100CD00088E4C39BFBE49AFAE499F9E498F880036A
:100CE00012098830D50DE4C39FFFE49EFEE49DFD0C
:040CF000E49CFC2262
:0E092800C3E49FFFE49EFEE49DFDE49CFC22E0
:10093600EB9FF5F0EA9E42F0E99D42F0EC6480C838
:0609460064809845F022D8
:100C3000020DCBE493A3F8E493A34003F68001F202
:100C400008DFF48029E493A3F85407240CC8C333C5
:100C5000C4540F4420C8834004F456800146F6DF94
:100C6000E4800B0102040810204080900D27E47EF0
:100C7000019360BCA3FF543F30E509541FFEE49389
:100C8000A360010ECF54C025E060A840B8E493A350
:100C9000FAE493A3F8E493A3C8C582C8CAC583CA7B
:100CA000F0A3C8C582C8CAC583CADFE9DEE780BE33
:010D5700009B
:10094C0075F008758200EF2FFFEE33FECD33CDCC62
:10095C0033CCC58233C5829BED9AEC99E5829840E5
:10096C000CF582EE9BFEED9AFDEC99FC0FD5F0D6C2
:10097C00E4CEFBE4CDFAE4CCF9A88222B800C1B9EC
:10098C000059BA002DEC8BF084CFCECDFCE5F0CB2A
:10099C00F97818EF2FFFEE33FEED33FDEC33FCEB63
:1009AC0033FB10D703994004EB99FB0FD8E5E4F91E
:1009BC00FA227818EF2FFFEE33FEED33FDEC33FC0B
:1009CC00C933C910D7059BE99A4007EC9BFCE99AFF
:1009DC00F90FD8E0E4C9FAE4CCFB2275F010EF2F44
:1009EC00FFEE33FEED33FDCC33CCC833C810D70744
:1009FC009BEC9AE899400AED9BFDEC9AFCE899F87F
:0E0A0C000FD5F0DAE4CDFBE4CCFAE4C8F92211
:00000001FF
