:100A0200C0F9A4B0999282F880908883C6A1868E9C
:1009AE00010800010D0102100000020B00190209DE
:0609BE000019020E01F415
:10033500E5086003020425F512AF127401A8070849
:100345008002C333D8FCFD7F06120A48E512B408C3
:1003550000400302040D900362F828287302037A13
:1003650002037F02037F02037F0203860203A002CA
:1003750003C90203F0900A0E801C80007DFF020471
:1003850008AE10AF117C037DE81202D274022FF57E
:1003950082740A3EF583E493FD8068AE10AF117C4C
:1003A500037DE81202D27E007F64CFCDCFCECCCEC6
:1003B5001202D274022FF582740A3EF583E4935437
:1003C5007FFD803FAE10AF117C007D641202D27EAE
:1003D500007F0ACFCDCFCECCCE1202D274022FF53C
:1003E50082740A3EF583E493FD8018AE10AF117C4C
:1003F500007D0A1202D274022DF582740A3CF5833F
:10040500E493FD7F07120A487F0A1209F07DFF7FFA
:1004150007120A480512E512C39408500302033E69
:10042500E508640160030204D0F512AF127401A857
:1004350007088002C333D8FCFD7F06120A48E5127F
:10044500B40800506E900451F8282873020469021C
:10045500046D02047102047502047902047D02042C
:100465008102049B7D8C80467DFF80427DFF803E1E
:100475007DFF803A7DFF80367DFF8032AE0BAF0C6D
:100485007C007D0A1202D274022FF582740A3EF5B1
:1004950083E493FD8018AE0BAF0C7C007D0A12023D
:1004A500D274022DF582740A3CF583E493FD7F072F
:1004B500120A487F0A1209F07DFF7F07120A4805D4
:1004C50012E512C394085003020430E50864026083
:1004D5000302059EF512AF127401A807088002C336
:1004E50033D8FCFD7F06120A48E512B40800400324
:1004F5000205869004FFF828287302051702051CDB
:1005050002051E02052002052202052602054202F9
:100515000569900A0C80488004800280007DFF8078
:100525005BAE0EAF0F7C007D641202D274022FF514
:1005350082740A3EF583E493547FFD803FAE0EAF8F
:100545000F7C007D641202D27E007F0ACFCDCFCE14
:10055500CCCE1202D274022FF582740A3EF583E4E2
:1005650093FD8018AE0EAF0F7C007D0A1202D27487
:10057500022DF582740A3CF583E493FD7F07120A88
:10058500487F0A1209F07DFF7F07120A480512E528
:0905950012C3940850030204DBB8
:01059E00223A
:10078A00E4F512F513D2C4D2C2D2B5D2B4C2B3C2FE
:10079A00B2C2B1C2B07F0A1209F020C405751201B3
:1007AA00801B20C205751202801320B5057512033D
:1007BA00800B20B4057512048003E4F512C2C4C28A
:1007CA00C2C2B5C2B4D2B3D2B2D2B1D2B07F0A12C7
:1007DA0009F020B305751301801B20B205751302B9
:1007EA00801320B105751303800B20B0057513041F
:1007FA008003E4F513E513600FE512600B25E0258D
:0A080A00E02513C39401FF227F00D4
:0108140022C1
:10059F0012078AEF640470347F0A1209F012078A77
:1005AF00EF6404702712078ABF040512033580F524
:1005BF00E5082401FFE433FE7C007D031202D28D97
:1005CF0008E508B40106850B09850C0A12078AEFA6
:1005DF006408702EE508B401297F0A1209F012078A
:1005EF008ABF081E12078ABF080512033580F5C39C
:1005FF00E50C9401E50B94004008E50C150C700216
:10060F00150B12078AEF6409702EE508B401297FD4
:10061F000A1209F012078ABF091E12078ABF0905BD
:10062F0012033580F5D3E50C9462E50B9400500866
:10063F00050CE50C7002050B12078AEF640570209C
:10064F007F0A1209F012078ABF051512078ABF0524
:10065F000512033580F5050DE50DB40303750D0186
:01066F002268
:100670001208158E108F11E50DB40121AE09AF0AD5
:100680007C007D641202C0C3E5119FE5109E5007F7
:10069000E4F50EF50F8006750E01750FF4E50D6497
:1006A000027054C3E51194D0E51094075008750EFC
:1006B00000750F648041D374D09511740795105064
:1006C00030E51194A0E510940F5026AC10AD11E464
:1006D0001202067B9A7A997919783E1200FBE4FBA4
:1006E000FA794878C312000A12023F8E0E8F0F80EB
:0E06F00006750E01750F90AF0FAE0E0208EBEF
:10088F007F0412085CE50DB40104C2808002D2809F
:10089F00E5087004C2818002D281E508B40104C268
:1008AF00828002D282E508B40203C28322D283225D
:10097800E4FD7F05120A487DFF7F04120A48120829
:0C0988008F12067012059F12033580F2DA
:040A12007F327E00B1
:0B0A1600EF1FAC0670011E4C70F622B2
:02093D00AD0704
:10093F00E4FBC294ED139294120A12D294EDC313F6
:0C094F00FD0BBB08ED7F327E00020A1693
:10099400E4FBC294EDC313FDD29430940343058069
:0909A400120A120BBB08EBAF05AF
:0109AD002227
:10091600C201D2947F787E00120A16C2947F207E8E
:1009260003120A16D2947F647E00120A16A29492CB
:0609360001120A12A201E9
:01093C002298
:10081500E4FFFE1209167FCC12093D7F4412093D03
:100825001209167FCC12093D7FBE12093D120994AB
:10083500AA07120994EFFEEAFFFDAC06E4120206D0
:10084500E4FBFA79C878401200FBE4FBFAF9783F3B
:0608550012000A12023F2E
:01085B00227A
:1009F000AD071FED600B7E78EED3940040F21E80B1
:010A0000F7FE
:010A010022D2
:10085C00EF24FB601314601914601F24037023E54C
:10086C00A0541F4480F5A022E5A0541F44A0F5A07D
:10087C0022E5A0541F44C0F5A022E5A0541F44E07B
:03088C00F5A022B2
:060A480012085C8D802203
:040A3000D2A07F05CC
:080A340000AE071FEE70F9226D
:0F0A2100D2A1120A30C2A17F05120A34C2A0224C
:0C0A3C00C2A1120A30D2A17F05020A34C8
:1009C500C2A0A20092A17F05120A34120A30C2A069
:0709D500D2A17F05020A34E4
:0309DC001208BF3F
:1009DF00120A30A2A19201C2A07F05120A34A2010D
:0109EF0022E5
:0208BF00AD0783
:1008C100E4FCC2A07F05120A34ED30E704D2A18016
:1008D10002C2A17F05120A34D2A0ED25E0FD7F05F9
:0908E100120A340CBC08DBC2A0B1
:0108EA0022EB
:10095B00E4FC120A30ED25E0FD30A103430501C292
:0C096B00A07F05120A340CBC08E8AF05A0
:01097700225D
:1008EB00AB07AA06120A217F901209DC7F4012097E
:1008FB00DCAE02AF037C007DFF1202C00C7DF41254
:0B090B0002D21208BF1209DF020A3CF2
:100003000202ABE86480F8E933E83360110460F07E
:10001300ED33EC337009E8FCE9FDEAFEEBFF220463
:1000230060DED3EB9FEA9EE99DE8C2E78CF0C2F75E
:1000330095F0400CE8CCF8E9CDF9EACEFAEBCFFB2A
:1000430012027685D0F05804700320D5B3E804700B
:10005300075002B2D50202B592D5EC0460F7E4CCA6
:10006300C0E0C398F8603B94186008400DD0E0FBF3
:1000730002028DE4FBFAC9FC8028E830E406E4C9F7
:10008300FBE4CAFCE830E305E4C9CACBFCE8540747
:100093006010F8C3E913F9EA13FAEB13FBEC13FC52
:1000A300D8F130F52FC3E49CFCEF9BFFEE9AFEEDF5
:1000B30099FDD0E0FBEF4E4D4C701222DB030202A0
:1000C300B2EC2CFCEF33FFEE33FEED33FDED30E706
:1000D300EB02028DEF2BFFEE3AFEED39FDD0E0FB94
:1000E30050130BBB00030202B5ED13FDEE13FEEF3D
:0800F30013FFEC13FC02028D67
:1000FB00EC4D6011E8497017ED33EC3304600DE4FF
:10010B00FCFFFEFD22E933E8330470F80202AB1268
:10011B00027658046009E4CC248150062850090269
:10012B0002B52840030202B2C0E0EB4A7044B9802A
:10013B0006D0E0FB0202A1EF4E701CBD8008EBFF66
:10014B00EAFEE9FD80EBE98DF0A4FEE5F00201E4A7
:10015B00E9CDF9EAFEEBFFEF89F0A4FCE5F0CE89DF
:10016B00F0A42EFFE435F0CD89F0A42DFEE435F09C
:10017B008067EF4E7005BD80D780C3EF8BF0A4ACCA
:10018B00F0EE8BF0A42CFCE435F0F8EF8AF0A42C05
:10019B00E5F038FCE433CB8DF0A42CFCE5F03BF818
:1001AB00EE8AF0A42CFCE5F038F8E433CF89F0A408
:1001BB002CFCE5F038CF3400CE89F0A42FFFE5F00E
:1001CB003EFEE433C98DF0A42EFEE5F039CD8AF066
:1001DB00A42FFFE5F03EFEE43DFD33D0E0FB5007DE
:1001EB000BBB000F0202B5EC2CFCEF33FFEE33FE22
:0601FB00ED33FD02028D50
:1002010075F020800E75F010800575F0087D007E78
:10021100007F003392D530D503120327EC33401011
:10022100EF33FFEE33FEED33FDEC33FCD5F0ED2281
:0E023100E5F0247EA2D513CC92E7CDCEFF22BD
:10023F00EDD2E7CD33EC3392D524814006E4FFFEB7
:10024F00FDFC22FCE4CFCECDCC24E0501174FF8016
:10025F00EDC3CC13CCCD13CDCE13CECF13CF0470B3
:07026F00F030D5DE02032789
:10027600E9D2E7C933E833F892D5EDD2E7CD33ECCE
:0702860033FC5002B2D52247
:10028D00EC30E7100FBF000C0EBE00080DBD0004D2
:10029D000BEB6014A2D5EB13FCED92E7FD2274FF7E
:1002AD00FCFDFEFF22E480F8A2D574FF13FC7D80D7
:0302BD00E480EFEB
:030000000206FEF7
:0C06FE00787FE4F6D8FD758120020745E6
:1002C000EF8DF0A4A8F0CF8CF0A428CE8DF0A42E52
:0202D000FE220C
:1002D200BC000BBE0029EF8DF084FFADF022E4CC10
:1002E200F875F008EF2FFFEE33FEEC33FCEE9DECD9
:1002F200984005FCEE9DFE0FD5F0E9E4CEFD22ED1F
:10030200F8F5F0EE8420D21CFEADF075F008EF2F68
:10031200FFED33FD4007985006D5F0F222C398FD59
:050322000FD5F0EA22F6
:0E032700C3E49FFFE49EFEE49DFDE49CFC22E7
:10070A00020978E493A3F8E493A34003F68001F284
:10071A0008DFF48029E493A3F85407240CC8C333F0
:10072A00C4540F4420C8834004F456800146F6DFBF
:10073A00E4800B01020408102040809009AEE47E98
:10074A00019360BCA3FF543F30E509541FFEE493B4
:10075A00A360010ECF54C025E060A840B8E493A37B
:10076A00FAE493A3F8E493A3C8C582C8CAC583CAA6
:10077A00F0A3C8C582C8CAC583CADFE9DEE780BE5E
:0109C4000032
:00000001FF
