:100AB400C0F9A4B0999282F880908883C6A1868EEA
:100A1100010F00011100070816070117081E000148
:0C0A21001300011232011032C101C1802B
:1003E800E50F60030204BDFB7A0079081206EA12E1
:1003F8000967AC07E41202ABE4FBFA797F78431291
:100408000204E4FBFA79C878421200FBE4FBFAF92B
:1004180078BF12000A1202DF8F13E4F514AF1474C8
:1004280001A807088002C333D8FCFD7F06120AEB37
:10043800E514B408005066900446F82828730204AE
:100448005E02046202046602046A0204770204A5DA
:10045800020486020493E50C800AE50C80137DBF34
:100468008036E50D75F00A84900AB493FD8029E57D
:100478000D75F00A84E5F0900AB493FD801AE5132F
:1004880075F00A84900AB493FD800DE51375F00A9F
:1004980084E5F0900AB493FD7F07120AEB7F0812F7
:1004A8000A917DFF7F07120AEB0514E514C394082F
:1004B8005003020425E50F6401705DF514AF147450
:1004C80001A807088002C333D8FCFD7F06120AEB97
:1004D800E51414600B24FB600B14601524077023CB
:1004E8007DBF801AE51075F00A84900AB493FD80E8
:1004F8000DE51075F00A84E5F0900AB493FD7F07C6
:10050800120AEB7F08120A917DFF7F07120AEB059A
:0805180014E514C3940840A58A
:0105200022B8
:1007A200120967AC07E41202ABE4FBFA797F7843E3
:1007B200120204E4FBFA79C878421200FBE4FBFA65
:1007C200F978BF12000A1202DF8F13E51170297F38
:1007D20004120904C280D281E513C3951250097F25
:1007E20005120904C286D284E513C3951240097F1B
:1007F20005120904C286C284E5116401703B7F04BC
:10080200120904D280C281E513C39512500A300046
:10081200077F05120904D286300007E513C395123B
:1008220040077F05120904C2867F053001061209BE
:0A08320004D28422120904C28422B9
:1005210020B01A7F0A120A9120B012E51104540179
:10053100F51120B0081203E81207A280F5E5116059
:10054100030205D5E50F701920B1167F0A120A9131
:1005510020B10E750F0120B1081203E81207A28025
:10056100F5E50F6401702320B1207F0A120A912062
:10057100B118851012AD10E4FF1209EDE4F50F205A
:10058100B1081203E81207A280F5E50F6401701F9C
:1005910020B21C7F0A120A9120B214E510D3946292
:1005A1005002051020B2081203E81207A280F5E5F7
:1005B1000F6401701F20B31C7F0A120A9120B3142B
:1005C100E510C394014002151020B3081203E8128C
:1005D10007A280F5E5116401704820B1157F0A1268
:1005E1000A9120B10DB20020B1081203E81207A24E
:1005F10080F520B2157F0A120A9120B20DD2012096
:10060100B2081203E81207A280F520B3157F0A127F
:100611000A9120B30DC20120B3081203E81207A208
:0306210080F5223F
:10099500E4FD7F05120AEB7DFF7F04120AEB7B0065
:1009A5007A007908120624E4FF1209378F1285129E
:0C09B500101203E81207A212052180F5C1
:040AD300D2A07F0529
:080AD70000AE071FEE70F922CA
:0F0AC400D2A1120AD3C2A17F05120AD7C2A02263
:0C0ADF00C2A1120AD3D2A17F05020AD7DF
:100A6700C2A0A20292A17F05120AD7120AD3C2A07E
:070A7700D2A17F05020AD79E
:100AA300120AD3A2A19202C2A07F05120AD7A20200
:010AB3002220
:0209C100AD0780
:1009C300E4FCC2A07F05120AD7ED30E704D2A18070
:1009D30002C2A17F05120AD7D2A0ED25E0FD7F0553
:0909E300120AD70CBC08DBC2A00B
:0109EC0022E8
:100A2E00E4FC120AD3ED25E0FD30A103430501C21B
:0C0A3E00A07F05120AD70CBC08E8AF0529
:010A4A002289
:100A7E00E4FEC297EF1392A3EFC313FFD2970EBEFD
:020A8E0008F06E
:010A90002243
:080A4B0075F00A84EE25F0FDB0
:100A5300C29300C29700D29300120A7EAF05120A16
:040A63007EC293229A
:0808C800C4540F75F00AA4FCF2
:1008D000E4FDC29300C29700D29300120A7EE4FFA7
:1008E000C297EDC313FD30A303430580D2970FBF1A
:1008F00008EEC29300C29700D29700C2A300D2A311
:0309000000AF0540
:0109030022D1
:10062400E4FD7F8E120A53120360FF75F00A84C43E
:1006340054F0FEEF7F8C120A4B900001120379FFF5
:1006440075F00A84C454F0FEEF7F8A120A4B9000BE
:1006540002120379FF75F00A84C454F0FEEF75F0BA
:100664000A84EE25F0FD7F88120A539000031203DA
:1006740079FF75F00A84C454F0FEEF75F00A84EE35
:1006840025F0FD7F86120A53900004120379FF754A
:10069400F00A84C454F0FEEF75F00A84EE25F0FDF0
:1006A4007F84120A53900005120379FF75F00A84BF
:1006B400C454F0FEEF75F00A84EE25F0FD7F82123B
:1006C4000A53900006120379FF75F00A84C454F0AB
:1006D400FEEF75F00A84EE25F0FD7F80120A537D4B
:0606E400807F8E020A5324
:1006EA007F8D1208D0EF7F8D1208C8EF540F2C129D
:1006FA0003A67F8B1208D0EF7F8B1208C8EF540F26
:10070A002C9000011203B87F891208D0EFC4540F4D
:10071A0075F00AA4FC7F891208D0EF540F2C9000C0
:10072A00021203B87F871208D0EFC4540F75F00A7B
:10073A00A4FC7F871208D0EF540F2C9000031203F9
:10074A00B87F851208D0EFC4540F75F00AA4FC7F55
:10075A00851208D0EF540F2C9000041203B87F833F
:10076A001208D0EFC4540F75F00AA4FC7F83120854
:10077A00D0EF540F2C9000051203B87F811208D0D5
:10078A00EFC4540F75F00AA4FC7F811208D0EF540D
:08079A000F2C9000060203B8C9
:1009ED008F148D15120AC47FA01209C1120AA3AF6C
:1009FD00141209C1120AA3AF151209C1D202120AAB
:040A0D0067020ADF93
:020937008F141B
:10093900120AC47FA01209C1120AA3AF141209C175
:10094900120AA3120AC47FA11209C1120AA3120A28
:0D0959002E8F15D202120A67120ADFAF15A9
:01096600226E
:10096700120AC47F901209C1120AA37F031209C198
:10097700120AA3120AC47F911209C1120AA3120A0A
:0D0987002E8F15D202120A67120ADFAF157B
:010994002240
:100A9100AD071FED600B7E78EED3940040F21E800F
:010AA100F75D
:010AA2002231
:10090400EF24FB601314601914601F24037023E5A3
:10091400A0541F4480F5A022E5A0541F44A0F5A0D4
:1009240022E5A0541F44C0F5A022E5A0541F44E0D2
:03093400F5A02209
:060AEB001209048D8022B7
:1000030002034BE86480F8E933E83360110460F0DD
:10001300ED33EC337009E8FCE9FDEAFEEBFF220463
:1000230060DED3EB9FEA9EE99DE8C2E78CF0C2F75E
:1000330095F0400CE8CCF8E9CDF9EACEFAEBCFFB2A
:1000430012031685D0F05804700320D5B3E804706A
:10005300075002B2D502035592D5EC0460F7E4CC05
:10006300C0E0C398F8603B94186008400DD0E0FBF3
:1000730002032DE4FBFAC9FC8028E830E406E4C956
:10008300FBE4CAFCE830E305E4C9CACBFCE8540747
:100093006010F8C3E913F9EA13FAEB13FBEC13FC52
:1000A300D8F130F52FC3E49CFCEF9BFFEE9AFEEDF5
:1000B30099FDD0E0FBEF4E4D4C701222DB0302039F
:1000C30052EC2CFCEF33FFEE33FEED33FDED30E766
:1000D300EB02032DEF2BFFEE3AFEED39FDD0E0FBF3
:1000E30050130BBB0003020355ED13FDEE13FEEF9C
:0800F30013FFEC13FC02032DC6
:1000FB00EC4D6011E8497017ED33EC3304600DE4FF
:10010B00FCFFFEFD22E933E8330470F802034B12C7
:10011B00031658046009E4CC2481500628500902C8
:10012B000355284003020352C0E0EB4A7044B980E8
:10013B0006D0E0FB020341EF4E701CBD8008EBFFC5
:10014B00EAFEE9FD80EBE98DF0A4FEE5F00201E4A7
:10015B00E9CDF9EAFEEBFFEF89F0A4FCE5F0CE89DF
:10016B00F0A42EFFE435F0CD89F0A42DFEE435F09C
:10017B008067EF4E7005BD80D780C3EF8BF0A4ACCA
:10018B00F0EE8BF0A42CFCE435F0F8EF8AF0A42C05
:10019B00E5F038FCE433CB8DF0A42CFCE5F03BF818
:1001AB00EE8AF0A42CFCE5F038F8E433CF89F0A408
:1001BB002CFCE5F038CF3400CE89F0A42FFFE5F00E
:1001CB003EFEE433C98DF0A42EFEE5F039CD8AF066
:1001DB00A42FFFE5F03EFEE43DFD33D0E0FB5007DE
:1001EB000BBB000F020355EC2CFCEF33FFEE33FE81
:0601FB00ED33FD02032DAF
:10020100020355EC5D046005E85904700302034BD9
:10021100120316580460F6EC4860F2EC7004FDFE1F
:10022100FF22C860DB2481C85009C39860025006D0
:100231000203529850CAF582E9294B4A7005AB82F4
:1002410002034175F0007C1A7880C3EF9BEE9AEDB2
:1002510099400DC3EF9BFFEE9AFEED99FDE842F048
:10026100DC23ACF0D0E0FFD0E0FED0E0FDAB82209B
:10027100E7101BEB60BAEC2CFCEF33FFEE33FEED25
:1002810033FD02032DE803F830E705C0F075F000F7
:10029100EF2FFFEE33FEED33FD40B830E7C280AA09
:1002A10075F020800E75F010800575F0087D007ED8
:1002B100007F003392D530D5031203DAEC334010BE
:1002C100EF33FFEE33FEED33FDEC33FCD5F0ED22E1
:0E02D100E5F0247EA2D513CC92E7CDCEFF221D
:1002DF00EDD2E7CD33EC3392D524814006E4FFFE17
:1002EF00FDFC22FCE4CFCECDCC24E0501174FF8076
:1002FF00EDC3CC13CCCD13CDCE13CECF13CF047013
:07030F00F030D5DE0203DA35
:10031600E9D2E7C933E833F892D5EDD2E7CD33EC2D
:0703260033FC5002B2D522A6
:10032D00EC30E7100FBF000C0EBE00080DBD000431
:10033D000BEB6014A2D5EB13FCED92E7FD2274FFDD
:10034D00FCFDFEFF22E480F8A2D574FF13FC7D8036
:03035D00E480EF4A
:0300000002083CB7
:0C083C00787FE4F6D8FD75812002088367
:10036000BB010689828A83E0225002E722BBFE029B
:09037000E32289828A83E49322CE
:10037900BB010CE58229F582E5833AF583E0225039
:1003890006E92582F8E622BBFE06E92582F8E22283
:0D039900E58229F582E5833AF583E493229D
:1003A600BB010689828A83F0225002F722BBFE0136
:0203B600F32230
:1003B800F8BB010DE58229F582E5833AF583E8F07B
:1003C800225006E92582C8F622BBFE05E92582C827
:0203D800F2220F
:0E03DA00C3E49FFFE49EFEE49DFDE49CFC2234
:10084800020995E493A3F8E493A34003F68001F228
:1008580008DFF48029E493A3F85407240CC8C333B1
:10086800C4540F4420C8834004F456800146F6DF80
:10087800E4800B0102040810204080900A11E47EF5
:10088800019360BCA3FF543F30E509541FFEE49375
:10089800A360010ECF54C025E060A840B8E493A33C
:1008A800FAE493A3F8E493A3C8C582C8CAC583CA67
:1008B800F0A3C8C582C8CAC583CADFE9DEE780BE1F
:010A2D0000C8
:00000001FF
