:0300000002006695
:0C006600787FE4F6D8FD7581240200AD1F
:10023D003F065B4F666D7D077F6F777C395E797109
:0F022A004800080102040810204080021900005B
:10005300438E0475D7CD75D6D4438E1043AF042297
:01001E0022BF
:10017500E51190020D93900000F0E51290020D93A9
:10018500900001F0E51390020D93900002F0E51444
:1001950090020D93900003F0E51590020D939000E9
:1001A50004F0E51690020D93900005F0E517900216
:1001B5000D93900006F0E51890020D93900007F05E
:0101C5002217
:1001C6001200031200531201753001FAC201E4F560
:1001D60024E524C3940850EE74112524F8E6FF1292
:0601E600024D052480EB30
:030063000200F2A6
:0800F200C0E0C083C082C0D051
:1000FA00051CE51C7002051B051EE51E7002051D88
:10010A00E51C6403451B7048F51BF51C75A0E0F55A
:10011A0080F5A075A0E07400251AF58274003519DF
:10012A00F583E0F4F58075A00075A0C07408251A5F
:10013A00F58274003519F583E0F58075A000051A7B
:10014A00E51A70020519640845197004F519F51ABB
:10015A00E51EB4E80DE51DB40308751D00751E0003
:02016A00D201C0
:09016C00D0D0D082D083D0E03263
:03023900011000B1
:10000300759850438E40538EFE53890F758BE07560
:0B0013008DFEC2ABD28ED2ACD2AF2269
:03002300020026B2
:07002600C0E0C0D075D00856
:10002D00309817C298E510C39408500B7411251021
:10003D00F8A69905108003751000309904C299C275
:01004D0002B0
:05004E00D0D0D0E0322B
:08024D002002FDD2028F99226C
:1001EC008B218A228923AB21AA22A9231202116016
:1001FC00130523E5237002052214F9120211FF12D4
:05020C00024D80E2221A
:100072000201C6E493A3F8E493A34003F68001F2DD
:1000820008DFF48029E493A3F85407240CC8C3338F
:10009200C4540F4420C8834004F456800146F6DF5E
:1000A200E4800B010204081020408090022AE47EC2
:1000B200019360BCA3FF543F30E509541FFEE49353
:1000C200A360010ECF54C025E060A840B8E493A31A
:1000D200FAE493A3F8E493A3C8C582C8CAC583CA45
:1000E200F0A3C8C582C8CAC583CADFE9DEE780BEFD
:01023C0000C1
:10021100BB010689828A83E0225002E722BBFE02EB
:09022100E32289828A83E493221E
:00000001FF
