:10074B00C0F9A4B0999282F880908883C6A1868E56
:1006250002090000010B00010C000812FFFFFFFF8B
:10063500FFFFFFFF010801011100011000010F007C
:08064500010E00010D00C100CF
:08000E007F757EB8DEFEDFFC09
:0100160022C7
:1006EF00538E7F5389F0758AF6758CFFC28DC28C3D
:0506FF00D2AFD2A922D8
:10070400538EBF53890F758BB0758D3CC28FC28ECB
:03071400D2AB2243
:10071700438E0475D72075D6D1438E1043AF04D2CC
:02072700AF22FF
:1006BA0053A01FE4F58043A0A053A01F7580FF43F9
:0B06CA00A0801206EF120704020717C1
:10001E001206757FCC12069C7F4412069C12067542
:10002E007FCC12069C7FBE12069C1206D58F1A122A
:10003E0006D5EFFEE51AFFFDAC06E4120269E4FBFD
:10004E00FA7980783D12015EE4FBFAF9783F1200EE
:04005E006D1202A27B
:01006200227B
:10064E00E50824FE600C14600E2402700D750F1464
:10065E008008750F1E8003750F46E5106008D28C5A
:07066E00D28EA20092B4221B
:1005FB0053A01FE510601CE50824FE600C14600E70
:10060B00240270127580FE800D7580FD8008758048
:0A061B00FB80037580FF43A08022DE
:10038600E50B706F7512BFE50890074B93F5137573
:1003960014BF7515FFE510FB7C037DE8FF7E001298
:1003A6000323744B2FF58274073EF583E493F51609
:1003B6007C037DE8AF037E001203237E007F64CFBB
:1003C600CDCFCECCCE120323744B2FF58274073ECD
:1003D600F583E493F517E51075F06484E5F075F0A0
:1003E6000A8490074B93F518E51075F00A84E5F03A
:1003F60093F519E50B6401704B7512BF90074F9387
:10040600F5137514BF7515FF7516FFAE09AF0A7C97
:10041600007D0A120323744B2FF58274073EF58381
:10042600E493F517AE09AF0A7C007D0A1203237424
:100436004B2DF58274073CF583E493F51890075726
:05044600E493F519220A
:10073B0012001E8E098F0A12064E1205FB0203864B
:1004D70020B31812000E20B3120508E508B4040370
:1004E70075080120B30512073B80F820B21D1200E2
:1004F7000E20B217743C2511F511B4B403E4F511BD
:1005070085111020B20512073B80F820B1131200A5
:100517000E20B10DE4F510F51120B10512073B804F
:10052700F820B01512000E20B00FE50B045401F5AA
:0A0537000B20B00512073B80F822EC
:100729001206BA12001E8E098F0A12073B1204D74D
:0207390080F846
:03000B000205C625
:1005C600C0E0C0D0050EE50EC39400400AE50E95C6
:1005D6000F5004D2008019E50EC3950F400AE50EB0
:1005E60094645004C2008008E50EB46403750E00DE
:0505F600D0D0D0E0327E
:03001B0002058D4E
:10058D00C0E0C0D0050DE50D64147028E510D394BE
:10059D000040041510801AE5107016F511C28C7507
:1005AD008CFF758AF6F50EC28E758D3C758BB0F588
:0905BD000D750D00D0D0D0E03224
:0300630002054152
:10054100C0E0C0D075D000C000C00753A01F7580A7
:10055100FF43A0E053A01FAF0C7401A8070880025D
:10056100C333D8FCF58043A0C053A01F7412250CDF
:10057100F8E6F58043A0E0050CE50CC394084003C0
:0C058100750C00D007D000D0D0D0E032C4
:04075B007F327E006B
:0B075F00EF1FAC0670011E4C70F6226C
:02069C00AD07A8
:10069E00E4FBC294ED13929412075BD294EDC31354
:0C06AE00FD0BBB08ED7F327E0002075FF1
:1006D500E4FBC294EDC313FDD2943094034305802B
:0906E50012075B0BBB08EBAF052B
:0106EE0022E9
:10067500C201D2947F787E0012075FC2947F207EEC
:100685000312075FD2947F647E0012075FA29492E3
:060695000112075BA20147
:01069B00223C
:1000660002030EE86480F8E933E83360110460F0B7
:10007600ED33EC337009E8FCE9FDEAFEEBFF220400
:1000860060DED3EB9FEA9EE99DE8C2E78CF0C2F7FB
:1000960095F0400CE8CCF8E9CDF9EACEFAEBCFFBC7
:1000A6001202D985D0F05804700320D5B3E8047045
:1000B600075002B2D502031892D5EC0460F7E4CCDF
:1000C600C0E0C398F8603B94186008400DD0E0FB90
:1000D6000202F0E4FBFAC9FC8028E830E406E4C931
:1000E600FBE4CAFCE830E305E4C9CACBFCE85407E4
:1000F6006010F8C3E913F9EA13FAEB13FBEC13FCEF
:10010600D8F130F52FC3E49CFCEF9BFFEE9AFEED91
:1001160099FDD0E0FBEF4E4D4C701222DB0302033B
:1001260015EC2CFCEF33FFEE33FEED33FDED30E73F
:10013600EB0202F0EF2BFFEE3AFEED39FDD0E0FBCD
:1001460050130BBB0003020318ED13FDEE13FEEF75
:0801560013FFEC13FC0202F0A0
:10015E00EC4D6011E8497017ED33EC3304600DE49B
:10016E00FCFFFEFD22E933E8330470F802030E12A1
:10017E0002D958046009E4CC2481500628500902A3
:10018E000318284003020315C0E0EB4A7044B980FF
:10019E0006D0E0FB020304EF4E701CBD8008EBFF9F
:1001AE00EAFEE9FD80EBE98DF0A4FEE5F0020247E0
:1001BE00E9CDF9EAFEEBFFEF89F0A4FCE5F0CE897C
:1001CE00F0A42EFFE435F0CD89F0A42DFEE435F039
:1001DE008067EF4E7005BD80D780C3EF8BF0A4AC67
:1001EE00F0EE8BF0A42CFCE435F0F8EF8AF0A42CA2
:1001FE00E5F038FCE433CB8DF0A42CFCE5F03BF8B5
:10020E00EE8AF0A42CFCE5F038F8E433CF89F0A4A4
:10021E002CFCE5F038CF3400CE89F0A42FFFE5F0AA
:10022E003EFEE433C98DF0A42EFEE5F039CD8AF002
:10023E00A42FFFE5F03EFEE43DFD33D0E0FB50077A
:10024E000BBB000F020318EC2CFCEF33FFEE33FE5A
:06025E00ED33FD0202F089
:1002640075F020800E75F010800575F0087D007E15
:10027400007F003392D530D503120378EC3340105D
:10028400EF33FFEE33FEED33FDEC33FCD5F0ED221E
:0E029400E5F0247EA2D513CC92E7CDCEFF225A
:1002A200EDD2E7CD33EC3392D524814006E4FFFE54
:1002B200FDFC22FCE4CFCECDCC24E0501174FF80B3
:1002C200EDC3CC13CCCD13CDCE13CECF13CF047050
:0702D200F030D5DE020378D5
:1002D900E9D2E7C933E833F892D5EDD2E7CD33EC6B
:0702E90033FC5002B2D522E4
:1002F000EC30E7100FBF000C0EBE00080DBD00046F
:100300000BEB6014A2D5EB13FCED92E7FD2274FF1A
:10031000FCFDFEFF22E480F8A2D574FF13FC7D8073
:03032000E480EF87
:0300000002044BAC
:0C044B00787FE4F6D8FD75812002049251
:10032300BC000BBE0029EF8DF084FFADF022E4CCBE
:10033300F875F008EF2FFFEE33FEEC33FCEE9DEC87
:10034300984005FCEE9DFE0FD5F0E9E4CEFD22EDCD
:10035300F8F5F0EE8420D21CFEADF075F008EF2F17
:10036300FFED33FD4007985006D5F0F222C398FD08
:050373000FD5F0EA22A5
:0E037800C3E49FFFE49EFEE49DFDE49CFC2296
:10045700020729E493A3F8E493A34003F68001F28B
:1004670008DFF48029E493A3F85407240CC8C333A6
:10047700C4540F4420C8834004F456800146F6DF75
:10048700E4800B0102040810204080900625E47EDA
:10049700019360BCA3FF543F30E509541FFEE4936A
:1004A700A360010ECF54C025E060A840B8E493A331
:1004B700FAE493A3F8E493A3C8C582C8CAC583CA5C
:1004C700F0A3C8C582C8CAC583CADFE9DEE780BE14
:01064D0000AC
:00000001FF
