:10030100C0F9A4B0999282F880908883C6A1868EA4
:08031100020A000002080000CE
:1002EF00AD071FED600B7E78EED3940040F21E80B9
:0102FF00F707
:0103000022DA
:10029E00EF24FB601314601914601F24037023E510
:1002AE00A0541F4480F5A022E5A0541F44A0F5A041
:1002BE0022E5A0541F44C0F5A022E5A0541F44E03F
:0302CE00F5A02276
:06031A0012029E8D8022FC
:1002D100758E80758915E4F58CF58AC28D758DD87A
:0E02E100758BF0C2A9D28CD2ABD28ED2AF22D6
:10001E00E4FB7401A803088002C333D8FCFD7F06FD
:10002E0012031AEBB40800400302015E900041F87F
:10003E002828730200590200610200610200650265
:10004E00008F0200C60200FC020132900310E493FE
:10005E00FD802B7DFF8027C3E5099410E5089427CA
:10006E00401AAE08AF097C277D1012020074012FD2
:10007E00F58274033EF583E493FD80027DFF020159
:10008E0059C3E50994E8E50894034027AE08AF0983
:10009E007C277D101202007E037FE8CFCDCFCECC21
:1000AE00CE12020074012FF58274033EF583E493A1
:1000BE00FD80027DFF020159C3E5099464E50894B1
:1000CE00004027AE08AF097C037DE81202007E00D7
:1000DE007F64CFCDCFCECCCE12020074012FF5822D
:1000EE0074033EF583E493FD80027DFF805DC3E5DE
:1000FE0009940AE50894004027AE08AF097C007DFC
:10010E00641202007E007F0ACFCDCFCECCCE12027B
:10011E000074012FF58274033EF583E493FD800293
:10012E007DFF8027C3E5099401E5089400401AAECF
:10013E0008AF097C007D0A12020074012DF582744D
:10014E00033CF583E493FD80027DFF7F0712031AC3
:10015E007F081202EF7DFF7F0712031A0BEB640874
:05016E00600302002007
:010173002269
:10000300E4FD7F0512031A7DFF1F12031A1202D1AA
:0500130012001E80FB3D
:03001B0002025589
:10025500C0E0C0D075D000C005C007758DD8758BBE
:10026500F0050BE50B7002050A64C8450A7021AF5D
:100275008CEFAD8AF508EDF509E508C313F508E53A
:100285000913F509758C00758A00750A00750B0050
:09029500D007D005D0D0D0E03232
:0300000002017486
:0C017400787FE4F6D8FD75810B0201BB1A
:10020000BC000BBE0029EF8DF084FFADF022E4CCE2
:10021000F875F008EF2FFFEE33FEEC33FCEE9DECAB
:10022000984005FCEE9DFE0FD5F0E9E4CEFD22EDF1
:10023000F8F5F0EE8420D21CFEADF075F008EF2F3B
:10024000FFED33FD4007985006D5F0F222C398FD2C
:050250000FD5F0EA22C9
:10018000020003E493A3F8E493A34003F68001F292
:1001900008DFF48029E493A3F85407240CC8C33380
:1001A000C4540F4420C8834004F456800146F6DF4F
:1001B000E4800B0102040810204080900311E47ECB
:1001C000019360BCA3FF543F30E509541FFEE49344
:1001D000A360010ECF54C025E060A840B8E493A30B
:1001E000FAE493A3F8E493A3C8C582C8CAC583CA36
:1001F000F0A3C8C582C8CAC583CADFE9DEE780BEEE
:0103190000E3
:00000001FF
