:10099E00C0F9A4B0999282F880908883C6A1868E01
:10000300010C00010F00011001010E0102080000A4
:07001300010D00020A0000CC
:100756007F03120811750A008F0BAC0AAD0BE41269
:1007660002C1E4FBFA79A07840120116E4FBFA799B
:100776007F784312021FE4FBFA79C8784212011609
:10078600E4FBFAF9783F1200251202FA8E118F1255
:10079600E50F70047F668002AF0B12089785110A79
:0307A60085120BAE
:0107A900222D
:10094800758E80758915E4F58CF58A758DD8758B4B
:0C095800F0C2A9D2ABD28CD28ED2AF225A
:0203DE008F117D
:1003E000E50E7003020602E51160030204ACF5128B
:1003F000AF127401A807088002C333D8FCFD7F0642
:100400001209D5E512B408004003020494900414C4
:10041000F828287302042C0204300204300204304D
:100420000204300204340204500204777DC1805F6C
:100430007DFF805BAE0AAF0B7C007D6412037B7492
:100440009E2FF58274093EF583E493547FFD803F2F
:10045000AE0AAF0B7C007D6412037B7E007F0ACF67
:10046000CDCFCECCCE12037B749E2FF58274093E85
:10047000F583E493FD8018AE0AAF0B7C007D0A1271
:10048000037B749E2DF58274093CF583E493FD7F14
:10049000071209D57F0812097B7DFF7F071209D556
:1004A0000512E512C3940850030203F0E51164013C
:1004B0006003020602F512AF127401A80708800259
:1004C000C333D8FCFD7F061209D5E512B4080040FD
:1004D000030205EA9004DBF82828730204F30204FF
:1004E000F90204FB02050002052A020561020597D4
:1004F0000205CD9009AD0205E280007DFF0205E511
:10050000C3E5099410E5089427401AAE08AF097CAA
:10051000277D1012037B749E2FF58274093EF583AC
:10052000E493FD80027DFF0205E5C3E50994E8E55B
:100530000894034027AE08AF097C277D1012037B87
:100540007E037FE8CFCDCFCECCCE12037B749E2F1F
:10055000F58274093EF583E493FD80027DFF020578
:10056000E5C3E5099464E50894004027AE08AF09A7
:100570007C037DE812037B7E007F64CFCDCFCECCA1
:10058000CE12037B749E2FF58274093EF583E493AB
:10059000FD80027DFF804EC3E509940AE5089400C2
:1005A0004027AE08AF097C007D6412037B7E007F8C
:1005B0000ACFCDCFCECCCE12037B749E2FF58274A2
:1005C000093EF583E493FD80027DFF8018AE08AFFD
:1005D000097C007D0A12037B749E2DF58274093C10
:1005E000F583E493FD7F071209D57F0812097B7D0F
:1005F000FF7F071209D50512E512C39408500302C4
:0206000004B73D
:0106020022D5
:1008B70020B3197F0A12097B20B31120B307AF0CAD
:0D08C7001203DE80F6E50C045401F50C224E
:1008D40020B2197F0A12097B20B21120B207AF0C93
:0D08E4001203DE80F6E50F045401F50F222B
:1008F10020B1197F0A12097B20B11120B107AF0C79
:0D0901001203DE80F6E510045401F510220B
:10090E0020B0197F0A12097B20B01120B007AF0C5E
:0D091E001203DE80F6E50E045401F50E22F2
:100603007F041207DE4380E0E51070030206C6E5AF
:100613000C7006C280D2818004D280C281C3E50BF4
:10062300945EE50A94014004C282803FC3E50B94C3
:10063300FAE50A9400400EE50B945EE50A94015036
:1006430004D2828026C3E50B9496E50A9400400EFB
:10065300E50B94FAE50A94005004C282800DC3E5C9
:100663000B9496E50A94005002D282C3E5099410D4
:10067300E50894274004C283803FC3E5099488E5D5
:10068300089413400EE5099410E50894275004D20A
:10069300838026C3E50994E8E5089403400EE50941
:1006A3009488E50894135004C283800DC3E509942C
:1006B300E8E50894035002D283E50F7003D2842245
:0706C300C284227580FF22B2
:10086D00E4FD7F051209D57DFF7F041209D512091C
:10087D00481207561208B71208D41208F112090EC1
:0A088D00AF0C1203DE12060380E731
:03001B000207AA2F
:1007AA00C0E0C0D075D000C005C007758DD8758B64
:1007BA00F0050DE50DB46413AF8CEFAD8AF508EDC5
:1007CA00F509750D00758C00758A00D007D005D023
:0407DA00D0D0E03269
:0409BD00D2A07F0540
:0809C10000AE071FEE70F922E1
:0F09AE00D2A11209BDC2A17F051209C1C2A022A8
:0C09C900C2A11209BDD2A17F050209C124
:10096400C2A0A20092A17F051209C11209BDC2A0B2
:07097400D2A17F050209C1B9
:10098D001209BDA2A19200C2A07F051209C1A20049
:01099D002237
:02084100AD0701
:10084300E4FCC2A07F051209C1ED30E704D2A18008
:1008530002C2A17F051209C1D2A0ED25E0FD7F05EB
:090863001209C10CBC08DBC2A0A3
:01086C002269
:10092B00E4FC1209BDED25E0FD30A103430501C236
:0C093B00A07F051209C10CBC08E8AF0544
:01094700228D
:020811008F1343
:100813001209AE7F9012084112098DAF13120841DD
:1008230012098D1209AE7F9112084112098D120926
:0D0833002B8F14D2001209641209C9AF14F2
:010840002295
:100897008F131209AE7F9012084112098D7F401203
:1008A700084112098DAF1312084112098D0209C9B7
:10097B00AD071FED600B7E78EED3940040F21E8026
:01098B00F774
:01098C002248
:1007DE00EF24FB601314601914601F24037023E5CB
:1007EE00A0541F4480F5A022E5A0541F44A0F5A0FC
:1007FE0022E5A0541F44C0F5A022E5A0541F44E0FA
:03080E00F5A02230
:0609D5001207DE8D8022F6
:10001E00020366E86480F8E933E83360110460F0A7
:10002E00ED33EC337009E8FCE9FDEAFEEBFF220448
:10003E0060DED3EB9FEA9EE99DE8C2E78CF0C2F743
:10004E0095F0400CE8CCF8E9CDF9EACEFAEBCFFB0F
:10005E0012033185D0F05804700320D5B3E8047034
:10006E00075002B2D502037092D5EC0460F7E4CCCF
:10007E00C0E0C398F8603B94186008400DD0E0FBD8
:10008E00020348E4FBFAC9FC8028E830E406E4C920
:10009E00FBE4CAFCE830E305E4C9CACBFCE854072C
:1000AE006010F8C3E913F9EA13FAEB13FBEC13FC37
:1000BE00D8F130F52FC3E49CFCEF9BFFEE9AFEEDDA
:1000CE0099FDD0E0FBEF4E4D4C701222DB03020384
:1000DE006DEC2CFCEF33FFEE33FEED33FDED30E730
:1000EE00EB020348EF2BFFEE3AFEED39FDD0E0FBBD
:1000FE0050130BBB0003020370ED13FDEE13FEEF66
:08010E0013FFEC13FC0203488F
:10011600EC4D6011E8497017ED33EC3304600DE4E3
:10012600FCFFFEFD22E933E8330470F80203661291
:10013600033158046009E4CC248150062850090292
:10014600037028400302036DC0E0EB4A7044B98097
:1001560006D0E0FB02035CEF4E701CBD8008EBFF8F
:10016600EAFEE9FD80EBE98DF0A4FEE5F00201FF71
:10017600E9CDF9EAFEEBFFEF89F0A4FCE5F0CE89C4
:10018600F0A42EFFE435F0CD89F0A42DFEE435F081
:100196008067EF4E7005BD80D780C3EF8BF0A4ACAF
:1001A600F0EE8BF0A42CFCE435F0F8EF8AF0A42CEA
:1001B600E5F038FCE433CB8DF0A42CFCE5F03BF8FD
:1001C600EE8AF0A42CFCE5F038F8E433CF89F0A4ED
:1001D6002CFCE5F038CF3400CE89F0A42FFFE5F0F3
:1001E6003EFEE433C98DF0A42EFEE5F039CD8AF04B
:1001F600A42FFFE5F03EFEE43DFD33D0E0FB5007C3
:100206000BBB000F020370EC2CFCEF33FFEE33FE4A
:06021600ED33FD02034878
:10021C00020370EC5D046005E85904700302036688
:10022C00120331580460F6EC4860F2EC7004FDFEE9
:10023C00FF22C860DB2481C85009C39860025006B5
:10024C0002036D9850CAF582E9294B4A7005AB82BE
:10025C0002035C75F0007C1A7880C3EF9BEE9AED7C
:10026C0099400DC3EF9BFFEE9AFEED99FDE842F02D
:10027C00DC23ACF0D0E0FFD0E0FED0E0FDAB822080
:10028C00E7101BEB60BAEC2CFCEF33FFEE33FEED0A
:10029C0033FD020348E803F830E705C0F075F000C1
:1002AC00EF2FFFEE33FEED33FD40B830E7C280AAEE
:1002BC0075F020800E75F010800575F0087D007EBD
:1002CC00007F003392D530D5031203D0EC334010AD
:1002DC00EF33FFEE33FEED33FDEC33FCD5F0ED22C6
:0E02EC00E5F0247EA2D513CC92E7CDCEFF2202
:1002FA00EDD2E7CD33EC3392D524814006E4FFFEFC
:10030A00FDFC22FCE4CFCECDCC24E0501174FF805A
:10031A00EDC3CC13CCCD13CDCE13CECF13CF0470F7
:07032A00F030D5DE0203D024
:10033100E9D2E7C933E833F892D5EDD2E7CD33EC12
:0703410033FC5002B2D5228B
:10034800EC30E7100FBF000C0EBE00080DBD000416
:100358000BEB6014A2D5EB13FCED92E7FD2274FFC2
:10036800FCFDFEFF22E480F8A2D574FF13FC7D801B
:03037800E480EF2F
:030000000206CA2B
:0C06CA00787FE4F6D8FD7581200207114E
:10037B00BC000BBE0029EF8DF084FFADF022E4CC66
:10038B00F875F008EF2FFFEE33FEEC33FCEE9DEC2F
:10039B00984005FCEE9DFE0FD5F0E9E4CEFD22ED75
:1003AB00F8F5F0EE8420D21CFEADF075F008EF2FBF
:1003BB00FFED33FD4007985006D5F0F222C398FDB0
:0503CB000FD5F0EA224D
:0E03D000C3E49FFFE49EFEE49DFDE49CFC223E
:1006D60002086DE493A3F8E493A34003F68001F2C5
:1006E60008DFF48029E493A3F85407240CC8C33325
:1006F600C4540F4420C8834004F456800146F6DFF4
:10070600E4800B0102040810204080900003E47E80
:10071600019360BCA3FF543F30E509541FFEE493E8
:10072600A360010ECF54C025E060A840B8E493A3AF
:10073600FAE493A3F8E493A3C8C582C8CAC583CADA
:10074600F0A3C8C582C8CAC583CADFE9DEE780BE92
:01001A0000E5
:00000001FF
