:100A4C00C0F9A4B0999282F880908883C6A1868E52
:1008F200072316050115173B320A2A0000000000E3
:100902000000000000013B00013800043401051E14
:100912003C012100013901013A00012200C102C15A
:0309220000C10110
:1009DF00758911E4F58E758C3C758AB0F58DF58BA4
:0B09EF00C28CC28ED2AFD2A9D2AB22C4
:1003A800E538706A7D207F061200037DBF7F071243
:1003B80000037F04120A3A7DFF7F071200037D4085
:1003C8007F0612000374342521F8E675F00A84903C
:1003D8000A4C93FD7F071200037F04120A3A7DFF3F
:1003E8007F071200037D807F0612000374342521E5
:1003F800F8E675F00A84E5F0900A4C93FD7F071241
:1004080000037F04120A3A7DFF7F07020003E538E4
:10041800640160030204B7FB7A007923120615E42D
:10042800F508AF087401A807088002C333D8FCFD9B
:100438007F06120003E508B40800505A90044BF8F0
:1004480028287302046302046702046B0204700222
:10045800047402047802047F02048CE527801AE5FC
:10046800278023300230800BE528800DE528801690
:100478003002237DBF801AE52975F00A84900A4C62
:1004880093FD800DE52975F00A84E5F0900A4C93F8
:10049800FD7F071200037F04120A3A7DFF7F0712CF
:1004A80000030508E508C39408500302042A22E55E
:1004B800386402600302054EF508AF087401A80706
:1004C800088002C333D8FCFD7F06120003E508B498
:1004D8000800505A9004E3F82828730204FB020429
:1004E800FD0205010205050205070204FB02050FCE
:1004F800020520800EE53B8014E53B802180007DCD
:10050800FF80267DBF8022742A253BF8E675F00A15
:1005180084900A4C93FD8011742A253BF8E675F007
:100528000A84E5F0900A4C93FD7F071200037F04CC
:10053800120A3A7DFF7F071200030508E508C394F5
:060548000850030204C28A
:01054E00228A
:1006CD0020B316E53870127F64120A3A20B30AE59A
:1006DD0021045403F52130B3FD20B21FE538701B02
:1006ED007F64120A3A20B21374342521F8E6F539E5
:1006FD00E4F521753801D28C30B2FD20B11CE538FE
:10070D00B402173001147F64120A3A20B10C7DFF38
:10071D007F04120003C20130B1FD20B125E538641C
:10072D0002701F20011C7F64120A3A20B114E53BB0
:10073D002401FFE433FE7C007D0A1203458D3B301E
:10074D00B1FD20B018E538B402132001107F6412FA
:0E075D000A3A20B008E4F53BF53830B0FD2232
:100A14007F04300108120926A200928022120926BE
:030A2400D280225B
:10098000E4FD7F051200037DFF7F041200031209BE
:10099000DF7B007A00792312054F1203A81206CDDF
:0509A000120A1480F5AD
:03000B000207F7F2
:1007F700C0E0C0F0C083C082C0D075D000C000C0C8
:1008070001C002C003C004C005C006C007758C3C08
:10081700758AB0053AE53A64147035B202B2002021
:100827000107E538B401020522E522B5391F200189
:100837001C120872742A253BF8A607053BE53BB452
:100847000A08D201753802753B00752200753A0017
:10085700D007D006D005D004D003D002D001D000F5
:0B086700D0D0D082D083D0F0D0E0329F
:100A3A00AD071FED600B7E78EED3940040F21E8066
:010A4A00F7B4
:010A4B002288
:10092600EF24FB601314601914601F24037023E581
:10093600A0541F4480F5A022E5A0541F44A0F5A0B2
:1009460022E5A0541F44C0F5A022E5A0541F44E0B0
:03095600F5A022E7
:060003001209268D802287
:100A2700E4FEC297EF1392A3EFC313FFD2970EBE54
:020A370008F0C5
:010A3900229A
:0809C30075F00A84EE25F0FD39
:1009CB00C29300C29700D29300120A27AF05120AF6
:0409DB0027C293227A
:0808B600C4540F75F00AA4FC04
:1008BE00E4FDC29300C29700D29300120A27E4FF10
:1008CE00C297EDC313FD30A303430580D2970FBF2C
:1008DE0008EEC29300C29700D29700C2A300D2A323
:0308EE0000AF0553
:0108F10022E4
:10054F00E4FD7F8E1209CB1202CBFF75F00A84C433
:10055F0054F0FEEF7F8C1209C39000011202E4FFEA
:10056F0075F00A84C454F0FEEF7F8A1209C390001D
:10057F00021202E4FF75F00A84C454F0FEEF75F026
:10058F000A84EE25F0FD7F881209CB90000312023A
:10059F00E4FF75F00A84C454F0FEEF75F00A84EEA0
:1005AF0025F0FD7F861209CB9000041202E4FF753F
:1005BF00F00A84C454F0FEEF75F00A84EE25F0FDC6
:1005CF007F841209CB9000051202E4FF75F00A84B4
:1005DF00C454F0FEEF75F00A84EE25F0FD7F821211
:1005EF0009CB9000061202E4FF75F00A84C454F0A0
:1005FF00FEEF75F00A84EE25F0FD7F801209CB7DAA
:06060F00807F8E0209CB82
:100615007F8D1208BEEF7F8D1208B6EF540F2C1296
:1006250003117F8B1208BEEF7F8B1208B6EF540FB4
:100635002C9000011203237F891208BEEFC4540FCA
:1006450075F00AA4FC7F891208BEEF540F2C9000A8
:10065500021203237F871208BEEFC4540F75F00AF8
:10066500A4FC7F871208BEEF540F2C9000031203E1
:10067500237F851208BEEFC4540F75F00AA4FC7FD2
:10068500851208BEEF540F2C9000041203237F83BC
:100695001208BEEFC4540F75F00AA4FC7F8312083C
:1006A500BEEF540F2C9000051203237F811208BE64
:1006B500EFC4540F75F00AA4FC7F811208BEEF54F5
:0806C5000F2C90000602032334
:040A5C007F327E0067
:0B0A6000EF1FAC0670011E4C70F62268
:0209A500AD079C
:1009A700E4FBC294ED139294120A5CD294EDC31344
:0C09B700FD0BBB08ED7F327E00020A60E1
:1009FA00E4FBC294EDC313FDD29430940343058003
:090A0A00120A5C0BBB08EBAF05FE
:010A130022C0
:10095900C203D2947F787E00120A60C2947F207EFF
:1009690003120A60D2947F647E00120A60A29492F4
:0609790003120A5CA20358
:01097F002255
:100872001209597FCC1209A57F441209A512095900
:100882007FCC1209A57FBE1209A51209FAAA071286
:1008920009FAEFFEEAFFFDAC06E4120211E4FBFAEC
:1008A2007980783D120106E4FBFAF9783F120015CF
:0308B20012024AE5
:0108B5002220
:10000E000202B6E86480F8E933E83360110460F068
:10001E00ED33EC337009E8FCE9FDEAFEEBFF220458
:10002E0060DED3EB9FEA9EE99DE8C2E78CF0C2F753
:10003E0095F0400CE8CCF8E9CDF9EACEFAEBCFFB1F
:10004E0012028185D0F05804700320D5B3E80470F5
:10005E00075002B2D50202C092D5EC0460F7E4CC90
:10006E00C0E0C398F8603B94186008400DD0E0FBE8
:10007E00020298E4FBFAC9FC8028E830E406E4C9E1
:10008E00FBE4CAFCE830E305E4C9CACBFCE854073C
:10009E006010F8C3E913F9EA13FAEB13FBEC13FC47
:1000AE00D8F130F52FC3E49CFCEF9BFFEE9AFEEDEA
:1000BE0099FDD0E0FBEF4E4D4C701222DB03020295
:1000CE00BDEC2CFCEF33FFEE33FEED33FDED30E7F0
:1000DE00EB020298EF2BFFEE3AFEED39FDD0E0FB7E
:1000EE0050130BBB00030202C0ED13FDEE13FEEF27
:0800FE0013FFEC13FC02029851
:10010600EC4D6011E8497017ED33EC3304600DE4F3
:10011600FCFFFEFD22E933E8330470F80202B61252
:10012600028158046009E4CC248150062850090253
:1001360002C02840030202BDC0E0EB4A7044B98009
:1001460006D0E0FB0202ACEF4E701CBD8008EBFF50
:10015600EAFEE9FD80EBE98DF0A4FEE5F00201EF91
:10016600E9CDF9EAFEEBFFEF89F0A4FCE5F0CE89D4
:10017600F0A42EFFE435F0CD89F0A42DFEE435F091
:100186008067EF4E7005BD80D780C3EF8BF0A4ACBF
:10019600F0EE8BF0A42CFCE435F0F8EF8AF0A42CFA
:1001A600E5F038FCE433CB8DF0A42CFCE5F03BF80D
:1001B600EE8AF0A42CFCE5F038F8E433CF89F0A4FD
:1001C6002CFCE5F038CF3400CE89F0A42FFFE5F003
:1001D6003EFEE433C98DF0A42EFEE5F039CD8AF05B
:1001E600A42FFFE5F03EFEE43DFD33D0E0FB5007D3
:1001F6000BBB000F0202C0EC2CFCEF33FFEE33FE0C
:06020600ED33FD02029839
:10020C0075F020800E75F010800575F0087D007E6D
:10021C00007F003392D530D50312039AEC33401093
:10022C00EF33FFEE33FEED33FDEC33FCD5F0ED2276
:0E023C00E5F0247EA2D513CC92E7CDCEFF22B2
:10024A00EDD2E7CD33EC3392D524814006E4FFFEAC
:10025A00FDFC22FCE4CFCECDCC24E0501174FF800B
:10026A00EDC3CC13CCCD13CDCE13CECF13CF0470A8
:07027A00F030D5DE02039A0B
:10028100E9D2E7C933E833F892D5EDD2E7CD33ECC3
:0702910033FC5002B2D5223C
:10029800EC30E7100FBF000C0EBE00080DBD0004C7
:1002A8000BEB6014A2D5EB13FCED92E7FD2274FF73
:1002B800FCFDFEFF22E480F8A2D574FF13FC7D80CC
:0302C800E480EFE0
:0300000002076B89
:0C076B00787FE4F6D8FD75813B0207B2F0
:1002CB00BB010689828A83E0225002E722BBFE0231
:0902DB00E32289828A83E4932264
:1002E400BB010CE58229F582E5833AF583E02250CF
:1002F40006E92582F8E622BBFE06E92582F8E22219
:0D030400E58229F582E5833AF583E4932232
:10031100BB010689828A83F0225002F722BBFE01CB
:02032100F322C5
:10032300F8BB010DE58229F582E5833AF583E8F010
:10033300225006E92582C8F622BBFE05E92582C8BC
:02034300F222A4
:10034500BC000BBE0029EF8DF084FFADF022E4CC9C
:10035500F875F008EF2FFFEE33FEEC33FCEE9DEC65
:10036500984005FCEE9DFE0FD5F0E9E4CEFD22EDAB
:10037500F8F5F0EE8420D21CFEADF075F008EF2FF5
:10038500FFED33FD4007985006D5F0F222C398FDE6
:050395000FD5F0EA2283
:0E039A00C3E49FFFE49EFEE49DFDE49CFC2274
:10077700020980E493A3F8E493A34003F68001F20F
:1007870008DFF48029E493A3F85407240CC8C33383
:10079700C4540F4420C8834004F456800146F6DF52
:1007A700E4800B01020408102040809008F2E47EE8
:1007B700019360BCA3FF543F30E509541FFEE49347
:1007C700A360010ECF54C025E060A840B8E493A30E
:1007D700FAE493A3F8E493A3C8C582C8CAC583CA39
:1007E700F0A3C8C582C8CAC583CADFE9DEE780BEF1
:0109250000D1
:00000001FF
