:100791001208B17F901207BF1208907F011207BFA4
:1007A1001208901208B17F911207BF120890120728
:0D07B100EB8F10D20212083D1208CCAF10E1
:0107BE002218
:0408C000D2A07F053E
:0808C40000AE071FEE70F922DF
:0F08B100D2A11208C0C2A17F051208C4C2A022A2
:0C08CC00C2A11208C0D2A17F050208C41E
:10083D00C2A0A20292A17F051208C41208C0C2A0D4
:07084D00D2A17F050208C4DF
:100890001208C0A2A19202C2A07F051208C4A2023F
:0108A0002235
:0207BF00AD0784
:1007C100E4FCC2A07F051208C4ED30E704D2A18089
:1007D10002C2A17F051208C4D2A0ED25E0FD7F056C
:0907E1001208C40CBC08DBC2A024
:0107EA0022EC
:1007EB00E4FC1208C0ED25E0FD30A103430501C276
:0C07FB00A07F051208C40CBC08E8AF0584
:0108070022CE
:1008A100C0F9A4B0999282F880908883C6A1868EFF
:10085400010A00020E003202080000020C0000012E
:060864000B00C100C18180
:10086B00758901E4F58E758CD8758AF0C28CD2AF80
:03087B00D2A922DD
:1003CE00E50A60030204BBF510AF107401A807081C
:1003DE008002C333D8FCFD7F06120003E51014B46F
:1003EE00070040030204A390040375F003A4C58321
:1003FE0025F0C583730204180204220204280204A5
:10040E002E020438020460020486AE0EAF0F7C008A
:10041E007D64802BAE0EAF0F803CAE0EAF0F805CB6
:10042E00AE08AF097C037DE8803DAE08AF097C03C2
:10043E007DE812036B7E007F64CFCDCFCECCCE1283
:10044E00036B74A12FF58274083EF583E493547FF9
:10045E00803DAE08AF097C007D6412036B7E007F89
:10046E000ACFCDCFCECCCE12036B74A12FF58274F2
:10047E00083EF583E4938017AE08AF097C007D0A31
:10048E0012036B74A12DF58274083CF583E493FD81
:10049E007F071200037F0812087E7DFF7F07120080
:1004AE00030510E510C3940850030203D7E50A6450
:1004BE000160030205AAF510AF107401A8070880A9
:1004CE0002C333D8FCFD7F06120003E51014B407F7
:1004DE000040030205929004F275F003A4C5832533
:1004EE00F0C5837302050702051102051702051DEB
:1004FE0002052702054F020575AE0EAF0F7C007D7B
:10050E0064802BAE0EAF0F803CAE0EAF0F805CAE94
:10051E000CAF0D7C037DE8803DAE0CAF0D7C037DF2
:10052E00E812036B7E007F64CFCDCFCECCCE12030C
:10053E006B74A12FF58274083EF583E493547F808B
:10054E003DAE0CAF0D7C007D6412036B7E007F0A06
:10055E00CFCDCFCECCCE12036B74A12FF582740803
:10056E003EF583E4938017AE0CAF0D7C007D0A122E
:10057E00036B74A12DF58274083CF583E493FD7F23
:10058E00071200037F0812087E7DFF7F071200030B
:0C059E000510E510C3940850030204C6C9
:0105AA00222E
:1006DF00E50A703020B02D208C2A7F0A12087E2068
:1006EF00B022E50945086005E4F508F509D28CD27A
:1006FF00007F0512075EA2009284C28620B0051209
:10070F0003CE80F8E50A702820B125308C227F0AAD
:10071F0012087E20B11AC28CC2007F0512075EA29A
:10072F00009284C286750A0120B1051203CE80F8AB
:10073F00E50AB4011920B016208C137F0A12087E27
:0F074F0020B00BE4F50A20B0051203CE80F8228B
:10082400120791EFC394404004D2018002C2017FB9
:090834000412075EA20192802269
:10080800E4FD7F051200037DFF7F04120003120838
:0C0818006B1203CE1208241206DF80F5DC
:03000B000205AB40
:1005AB00C0E0C0F0C083C082C0D075D000C000C016
:1005BB0001C002C003C004C005C006C007758CD8BB
:1005CB00758AF0050BE50B640A70620509E5097085
:1005DB00020508B40F17E508B42712C28CC2007FBE
:1005EB000512075EA2009284C286750A01AC08ADA3
:1005FB0009E41202B1C004C005C006C007AC0EADC1
:10060B000FE41202B1D003D002D001D000120106C8
:10061B00E4FBFA79C8784212020FE4FBFAF9783F4F
:10062B001200151202EA8E0C8F0D750B00D007D03D
:10063B0006D005D004D003D002D001D000D0D0D04A
:08064B0082D083D0F0D0E03230
:10087E00AD071FED600B7E78EED3940040F21E8024
:01088E00F772
:01088F002246
:10075E00EF24FB601314601914601F24037023E54B
:10076E00A0541F4480F5A022E5A0541F44A0F5A07C
:10077E0022E5A0541F44C0F5A022E5A0541F44E07A
:03078E00F5A022B1
:0600030012075E8D802251
:10000E00020356E86480F8E933E83360110460F0C7
:10001E00ED33EC337009E8FCE9FDEAFEEBFF220458
:10002E0060DED3EB9FEA9EE99DE8C2E78CF0C2F753
:10003E0095F0400CE8CCF8E9CDF9EACEFAEBCFFB1F
:10004E0012032185D0F05804700320D5B3E8047054
:10005E00075002B2D502036092D5EC0460F7E4CCEF
:10006E00C0E0C398F8603B94186008400DD0E0FBE8
:10007E00020338E4FBFAC9FC8028E830E406E4C940
:10008E00FBE4CAFCE830E305E4C9CACBFCE854073C
:10009E006010F8C3E913F9EA13FAEB13FBEC13FC47
:1000AE00D8F130F52FC3E49CFCEF9BFFEE9AFEEDEA
:1000BE0099FDD0E0FBEF4E4D4C701222DB03020394
:1000CE005DEC2CFCEF33FFEE33FEED33FDED30E750
:1000DE00EB020338EF2BFFEE3AFEED39FDD0E0FBDD
:1000EE0050130BBB0003020360ED13FDEE13FEEF86
:0800FE0013FFEC13FC020338B0
:10010600EC4D6011E8497017ED33EC3304600DE4F3
:10011600FCFFFEFD22E933E8330470F802035612B1
:10012600032158046009E4CC2481500628500902B2
:10013600036028400302035DC0E0EB4A7044B980C7
:1001460006D0E0FB02034CEF4E701CBD8008EBFFAF
:10015600EAFEE9FD80EBE98DF0A4FEE5F00201EF91
:10016600E9CDF9EAFEEBFFEF89F0A4FCE5F0CE89D4
:10017600F0A42EFFE435F0CD89F0A42DFEE435F091
:100186008067EF4E7005BD80D780C3EF8BF0A4ACBF
:10019600F0EE8BF0A42CFCE435F0F8EF8AF0A42CFA
:1001A600E5F038FCE433CB8DF0A42CFCE5F03BF80D
:1001B600EE8AF0A42CFCE5F038F8E433CF89F0A4FD
:1001C6002CFCE5F038CF3400CE89F0A42FFFE5F003
:1001D6003EFEE433C98DF0A42EFEE5F039CD8AF05B
:1001E600A42FFFE5F03EFEE43DFD33D0E0FB5007D3
:1001F6000BBB000F020360EC2CFCEF33FFEE33FE6B
:06020600ED33FD02033898
:10020C00020360EC5D046005E859047003020356B8
:10021C00120321580460F6EC4860F2EC7004FDFE09
:10022C00FF22C860DB2481C85009C39860025006C5
:10023C0002035D9850CAF582E9294B4A7005AB82DE
:10024C0002034C75F0007C1A7880C3EF9BEE9AED9C
:10025C0099400DC3EF9BFFEE9AFEED99FDE842F03D
:10026C00DC23ACF0D0E0FFD0E0FED0E0FDAB822090
:10027C00E7101BEB60BAEC2CFCEF33FFEE33FEED1A
:10028C0033FD020338E803F830E705C0F075F000E1
:10029C00EF2FFFEE33FEED33FD40B830E7C280AAFE
:1002AC0075F020800E75F010800575F0087D007ECD
:1002BC00007F003392D530D5031203C0EC334010CD
:1002CC00EF33FFEE33FEED33FDEC33FCD5F0ED22D6
:0E02DC00E5F0247EA2D513CC92E7CDCEFF2212
:1002EA00EDD2E7CD33EC3392D524814006E4FFFE0C
:1002FA00FDFC22FCE4CFCECDCC24E0501174FF806B
:10030A00EDC3CC13CCCD13CDCE13CECF13CF047007
:07031A00F030D5DE0203C044
:10032100E9D2E7C933E833F892D5EDD2E7CD33EC22
:0703310033FC5002B2D5229B
:10033800EC30E7100FBF000C0EBE00080DBD000426
:100348000BEB6014A2D5EB13FCED92E7FD2274FFD2
:10035800FCFDFEFF22E480F8A2D574FF13FC7D802B
:03036800E480EF3F
:03000000020653A2
:0C065300787FE4F6D8FD75812002069A3D
:10036B00BC000BBE0029EF8DF084FFADF022E4CC76
:10037B00F875F008EF2FFFEE33FEEC33FCEE9DEC3F
:10038B00984005FCEE9DFE0FD5F0E9E4CEFD22ED85
:10039B00F8F5F0EE8420D21CFEADF075F008EF2FCF
:1003AB00FFED33FD4007985006D5F0F222C398FDC0
:0503BB000FD5F0EA225D
:0E03C000C3E49FFFE49EFEE49DFDE49CFC224E
:10065F00020808E493A3F8E493A34003F68001F2A1
:10066F0008DFF48029E493A3F85407240CC8C3339C
:10067F00C4540F4420C8834004F456800146F6DF6B
:10068F00E4800B0102040810204080900854E47E9F
:10069F00019360BCA3FF543F30E509541FFEE49360
:1006AF00A360010ECF54C025E060A840B8E493A327
:1006BF00FAE493A3F8E493A3C8C582C8CAC583CA52
:1006CF00F0A3C8C582C8CAC583CADFE9DEE780BE0A
:01086A00008D
:00000001FF
