:100ACF00C0F9A4B0999282F880908883C6A1868ECF
:1009D900010900010E00010B0001131E011214018F
:1009E9000D0A01100A010C0A010F0A011100010880
:0809F90000010A00C180C18168
:100A9800758901E4F58E758CD8758AF0D28CD2AF41
:030AA800D2A922AE
:1006B8001209628F0EE50EC395125008E4F50B750A
:1006C80008508014E512D3950E5010E50E9513507E
:1006D8000A750B01750828E4FD8008750B0275087A
:1006E800147D107F05120003E509600302077F7D72
:1006F800017F061200037DBF7F071200037F0412EB
:100708000ABD7DFF7F071200037D027F06120003EA
:10071800E50B900ACF93FD7F071200037F04120AAE
:10072800BD7DFF7F071200037D047F061200037D55
:10073800BF7F071200037F04120ABD7DFF7F0712E7
:1007480000037D407F06120003E50E75F00A8490D1
:100758000ACF93FD7F071200037F04120ABD7DFFB5
:100768007F071200037D807F06120003E50E75F0F7
:100778000A84E5F002083EE50964016003020854B2
:100788007D017F061200037DBF7F071200037F04EF
:10079800120ABD7DFF7F07120003E511C3940140D3
:1007A8001F7D027F06120003E50D900ACF93FD7F9F
:1007B800071200037F04120ABD7DFF7F07120003A2
:1007C800E511C39402401F7D047F06120003E51063
:1007D800900ACF93FD7F071200037F04120ABD7DA4
:1007E800FF7F071200037D207F061200037DBF7F75
:1007F800071200037F04120ABD7DFF7F0712000362
:10080800E511C39403401F7D407F06120003E50CE9
:10081800900ACF93FD7F071200037F04120ABD7D63
:10082800FF7F07120003E511C39404401F7D807FFA
:1008380006120003E50F900ACF93FD7F071200030D
:0D0848007F04120ABD7DFF7F07120003220E
:1008E100C2B0C2B1C2B2C2B3D2B4D2B5D2C2D2C402
:1008F10020B4047E04801720B5047E03801020C23A
:10090100047E02800920C4047E018002E4FED2B08C
:10091100D2B1D2B2D2B3C2B4C2B5C2C2C2C420B083
:10092100047F04801720B1047F03801020B2047F6C
:1009310002800920B3047F018002E4FFEE600DEF25
:10094100600AEE25E025E02F14FD8002E4FDD2B01F
:10095100D2B1D2B2D2B3D2B4D2B5D2C2D2C4AF051F
:010961002273
:10000E00C28C1208E18F14E5097026E514B408219C
:10001E007F0A120ABDE5097008E514B408037509D4
:10002E0001E514640860030203DC1208E18F1480FA
:10003E00F0E50964017030E514640C702A7F0A1231
:10004E000ABDE509B40110E514B40C0BE4F50DF589
:10005E0010F50CF50FF511E514640C60030203DCCA
:10006E001208E18F1480F0E5096401600302012D8E
:10007E00E511600302012DE514700302012D7F0AC4
:10008E00120ABDE509640160030203DCE511600399
:10009E000203DCE51470030203DC24FCB40C0050F4
:1000AE00649000BD75F003A4C58325F0C58373026B
:1000BE0000E10200E60200EB0200F0020113020072
:1000CE00F50200FA0200FF02011302010402010907
:1000DE0002010E750D098030750D06802B750D030E
:1000EE008026E4F50D8021750D07801C750D0480AA
:1000FE0017750D018012750D08800D750D058008A0
:10010E00750D028003750D0AE50D640A6003751105
:10011E0001E51470030203DC1208E18F1480F2E58E
:10012E0009640160030201E9E51164016003020143
:10013E00E9E51470030201E97F0A120ABDE50964BC
:10014E000160030203DCE511640160030203DCE5D8
:10015E001470030203DC24FCB40C0050649001798B
:10016E0075F003A4C58325F0C5837302019D0201BA
:10017E00A20201A70201AC0201CF0201B10201B637
:10018E000201BB0201CF0201C00201C50201CA7504
:10019E0010098030751006802B7510038026E4F54B
:1001AE00108021751007801C7510048017751001C2
:1001BE008012751008800D7510058008751002806C
:1001CE000375100AE510640A6003751102E51470D8
:1001DE00030203DC1208E18F1480F2E5096401606A
:1001EE00030202A5E511640260030202A5E5147084
:1001FE00030202A57F0A120ABDE50964016003022B
:10020E0003DCE511640260030203DCE514700302F3
:10021E0003DC24FCB40C00506490023575F003A48A
:10022E00C58325F0C5837302025902025E02026382
:10023E0002026802028B02026D0202720202770251
:10024E00028B02027C020281020286750C0980304A
:10025E00750C06802B750C038026E4F50C80217539
:10026E000C07801C750C048017750C018012750C20
:10027E0008800D750C058008750C028003750C0A3C
:10028E00E50C640A6003751103E51470030203DCC8
:10029E001208E18F1480F2E5096401600302036124
:1002AE00E51164036003020361E514700302036148
:1002BE007F0A120ABDE509640160030203DCE51141
:1002CE00640360030203DCE51470030203DC24FC08
:1002DE00B40C0050649002F175F003A4C58325F0B0
:1002EE00C5837302031502031A02031F02032402BD
:1002FE00034702032902032E0203330203470203BC
:10030E003802033D020342750F098030750F0680D7
:10031E002B750F038026E4F50F8021750F07801CC7
:10032E00750F048017750F018012750F08800D75FB
:10033E000F058008750F028003750F0AE50F640A1A
:10034E006003751104E51470030203DC1208E18FDB
:10035E001480F2E51164047075E5146408706F7F03
:10036E000A120ABDE51164047064E5146408705E37
:10037E00E50C75F00AA47C00250FFDEC35F0FCE5CC
:10038E000D75F00AA47A002510FFEA35F0FEC3EFD2
:10039E009DEC6480F8EE6480985004C2018023E5E1
:1003AE000D75F00AA42510F513E50C75F00AA425B9
:1003BE000FF512E4F50DF510F50CF50FF511D20150
:1003CE00F509E514B408071208E18F1480F4E5145A
:0E03DE00600A1208E18F141206B880F2D28C69
:0103EC0022EE
:100AAB00C28C7F041209A6A2009280A2019281D26D
:020ABB008E2289
:100A4700E4FD7F051200037DFF7F04120003120AF5
:0C0A570098120AAB12000E1206B880F5CF
:03000B00020A6383
:100A6300C0E0C0D0758CD8758AF0050AE50AB508D0
:0B0A730005B200750A00D0D0D0E032C0
:040ADF007F327E00E4
:0B0AE300EF1FAC0670011E4C70F622E5
:020A2900AD0717
:100A2B00E4FBC294ED139294120ADFD294EDC3133C
:0C0A3B00FD0BBB08ED7F327E00020AE3D9
:100A7E00E4FBC294EDC313FDD2943094034305807E
:090A8E00120ADF0BBB08EBAF05F7
:010A9700223C
:100A0200C202D2947F787E00120AE3C2947F207ED3
:100A120003120AE3D2947F647E00120AE3A2949244
:060A220002120ADFA2022D
:010A280022AB
:10096200120A027FCC120A297F44120A29120A02B1
:100972007FCC120A297FBE120A29120A7EAA071206
:100982000A7EEFFEEAFFFDAC06E41205F0E4FBFA94
:100992007980783D1204E5E4FBFAF9783F1203F41A
:0309A20012062911
:0109A500222F
:100ABD00AD071FED600B7E78EED3940040F21E80E3
:010ACD00F731
:010ACE002205
:1009A600EF24FB601314601914601F24037023E501
:1009B600A0541F4480F5A022E5A0541F44A0F5A032
:1009C60022E5A0541F44C0F5A022E5A0541F44E030
:0309D600F5A02267
:060003001209A68D802207
:1003ED00020695E86480F8E933E83360110460F0A3
:1003FD00ED33EC337009E8FCE9FDEAFEEBFF220476
:10040D0060DED3EB9FEA9EE99DE8C2E78CF0C2F770
:10041D0095F0400CE8CCF8E9CDF9EACEFAEBCFFB3C
:10042D0012066085D0F05804700320D5B3E804702F
:10043D00075002B2D502069F92D5EC0460F7E4CCCA
:10044D00C0E0C398F8603B94186008400DD0E0FB05
:10045D00020677E4FBFAC9FC8028E830E406E4C91B
:10046D00FBE4CAFCE830E305E4C9CACBFCE8540759
:10047D006010F8C3E913F9EA13FAEB13FBEC13FC64
:10048D00D8F130F52FC3E49CFCEF9BFFEE9AFEED07
:10049D0099FDD0E0FBEF4E4D4C701222DB030206AE
:1004AD009CEC2CFCEF33FFEE33FEED33FDED30E72E
:1004BD00EB020677EF2BFFEE3AFEED39FDD0E0FBB8
:1004CD0050130BBB000302069FED13FDEE13FEEF61
:0804DD0013FFEC13FC0206778B
:1004E500EC4D6011E8497017ED33EC3304600DE411
:1004F500FCFFFEFD22E933E8330470F8020695128D
:10050500066058046009E4CC24815006285009028D
:10051500069F28400302069CC0E0EB4A7044B98060
:1005250006D0E0FB02068BEF4E701CBD8008EBFF8A
:10053500EAFEE9FD80EBE98DF0A4FEE5F00205CECB
:10054500E9CDF9EAFEEBFFEF89F0A4FCE5F0CE89F1
:10055500F0A42EFFE435F0CD89F0A42DFEE435F0AE
:100565008067EF4E7005BD80D780C3EF8BF0A4ACDC
:10057500F0EE8BF0A42CFCE435F0F8EF8AF0A42C17
:10058500E5F038FCE433CB8DF0A42CFCE5F03BF82A
:10059500EE8AF0A42CFCE5F038F8E433CF89F0A41A
:1005A5002CFCE5F038CF3400CE89F0A42FFFE5F020
:1005B5003EFEE433C98DF0A42EFEE5F039CD8AF078
:1005C500A42FFFE5F03EFEE43DFD33D0E0FB5007F0
:1005D5000BBB000F02069FEC2CFCEF33FFEE33FE46
:0605E500ED33FD02067774
:1005EB0075F020800E75F010800575F0087D007E8B
:1005FB00007F003392D530D5031206AAEC3340109E
:10060B00EF33FFEE33FEED33FDEC33FCD5F0ED2293
:0E061B00E5F0247EA2D513CC92E7CDCEFF22CF
:10062900EDD2E7CD33EC3392D524814006E4FFFEC9
:10063900FDFC22FCE4CFCECDCC24E0501174FF8028
:10064900EDC3CC13CCCD13CDCE13CECF13CF0470C5
:07065900F030D5DE0206AA15
:10066000E9D2E7C933E833F892D5EDD2E7CD33ECE0
:0706700033FC5002B2D52259
:10067700EC30E7100FBF000C0EBE00080DBD0004E4
:100687000BEB6014A2D5EB13FCED92E7FD2274FF90
:10069700FCFDFEFF22E480F8A2D574FF13FC7D80E9
:0306A700E480EFFD
:030000000208559E
:0C085500787FE4F6D8FD75812002089C35
:0E06AA00C3E49FFFE49EFEE49DFDE49CFC2261
:10086100020A47E493A3F8E493A34003F68001F25C
:1008710008DFF48029E493A3F85407240CC8C33398
:10088100C4540F4420C8834004F456800146F6DF67
:10089100E4800B01020408102040809009D9E47E15
:1008A100019360BCA3FF543F30E509541FFEE4935C
:1008B100A360010ECF54C025E060A840B8E493A323
:1008C100FAE493A3F8E493A3C8C582C8CAC583CA4E
:1008D100F0A3C8C582C8CAC583CADFE9DEE780BE06
:010A010000F4
:00000001FF
