:10068600C0F9A4B0999282F880908883C6A1868E1C
:10059700011400010C19010A0101130001090001EE
:1005A7001100010D00010E040108000115000110E2
:0C05B70001011200010B00010F00C180C7
:10061200758911E4F58E758CFF758A9C758DD87578
:0D0622008BF0C28CC28ED2AFD2A9D2AB2217
:100375007F031205378F14E514C39400400DE5146F
:1003850094405007750A01750C1922E514C3944071
:10039500400DE51494805007750A02750C3222E56C
:1003A50014C39480400DE51494BF5007750A037576
:1003B5000C4B22E514C394BF400DE514D394FF50B4
:0803C50006750A04750C6422A0
:10024400851217AD0F7F04120003E510B40113E506
:100254000B600FAF127401A807088002C333D8FCE7
:100264008016E510B40214E50B6010AF127480A878
:1002740007088002C313D8FCF48058E510640370A7
:1002840027E50B6023531703AF177480A807088072
:1002940002C313D8FCF4FFAE177401A80608800249
:1002A400C333D8FCF45F802BE51064047028E50B9D
:1002B4006024531703AF177408A807088002C313F8
:1002C400D8FCF4FFAE177410A806088002C333D814
:1002D400FCF45FFD8006E50B70077DFF7F041200D0
:0402E4000385800FFF
:0102E80022F3
:10001E00E508640160030200B9F516AF167401A875
:10002E0007088002C333D8FCFD7F06120003E516D5
:10003E00B40800505A90004AF82828730200620251
:10004E00006402006C020070020074020083020061
:10005E00920200928008E5156035E510801F7DBF85
:10006E0080287DFF8024E50EC3940A4022900687E7
:10007E00E493FD8015E50E75F00A84E5F090068692
:10008E0093FD8006900686E493FD7F071200037FA2
:10009E00081206637DFF7F07120003120244051645
:1000AE00E516C39408500302002922E50864026095
:1000BE0003020167F516AF167401A807088002C384
:1000CE0033D8FCFD7F06120003E516B40800506E0F
:1000DE009000E5F82828730200FD0200FF020103DC
:1000EE0002010702010B02011E02013102013D80D5
:1000FE0004E51080277DBF80407DFF803CE50EC368
:10010E00940A403AE5156036900687E493FD8029FF
:10011E00E515602AE50E75F00A84E5F090068693E3
:10012E00FD8016E5156017900686E493FD800AE5BE
:10013E0015600B900686E493FD7F071200037F087F
:10014E001206637DFF7F071200031202440516E5B7
:09015E0016C3940850030200C40A
:010167002275
:10049A007D407F061200037DBF7F071200037F089D
:1004AA001206637DFF7F071200037D807F0612001C
:1004BA0003E50A90068693FD7F071200037F081260
:0904CA0006637DFF7F07020003B9
:1001680020B34C7F0A12066320B344E50864036099
:1001780004E508700E20B337120375120244120406
:100188009A80F2E508B40111E510C3940240021503
:100198001020B31B12001E80F8E508B40211E50E0A
:1001A800C394054002150E20B30512001E80F820E6
:1001B800B238E50860347F0A12066320B22CE508DD
:1001C800B40111E510D394035002051020B20512B2
:1001D800001E80F8E508B40211E50ED3940B500216
:1001E800050E20B20512001E80F820B1397F0A12D0
:1001F800066320B131E508B40213AD10E4FF12051F
:10020800F07F14120663AD0E7F011205F0E5082495
:1002180001FFE433FE7C007D031203CD8D0820B17D
:100228000512001E80F820B0127F0A12066320B063
:0C0238000AB20020B00512001E80F8225F
:10050600E4FD7F051200037DFF7F0412000312063F
:1005160012E4FF1205678F107F011205678F0ED256
:100526008CD28E12037512024412001E12016880CC
:01053600F2D2
:03000B00020422CA
:10042200C0E0C0D0758CFF758A9C0513E513C39498
:1004320000400BE513950C5005750B01801AE5136E
:10044200C3950C400BE51394645005750B008008AE
:0D045200E513B46403751300D0D0D0E03280
:03001B0002045F7D
:10045F00C0E0C0D0758DD8758BF00509E509640A29
:10046F007024050DE50DB50E0D300007E51204548F
:10047F0007F512750D000511E511B408066315FF98
:0B048F00751100750900D0D0D0E032DC
:020537008F161D
:100539001206967F901205C4120675AF161205C4ED
:100549001206751206967F911205C41206751206D7
:0D0559002F8F17D20112064C1206A5AF1706
:010566002272
:1005F0008F168D171206967FA01205C4120675AFCE
:10060000161205C4120675AF171205C4120675023C
:0206100006A53D
:020567008F16ED
:100569001206967FA01205C4120675AF161205C4AD
:100579001206751206967FA11205C4120675120697
:0D0589002F8F17D20112064C1206A5AF17D6
:010596002242
:04000E00D2A07F05F8
:0800120000AE071FEE70F92299
:0F069600D2A112000EC2A17F05120012C2A02233
:0C06A500C2A112000ED2A17F05020012BB
:10064C00C2A0A20192A17F0512001212000EC2A03C
:07065C00D2A17F050200128C
:1006750012000EA2A19201C2A07F05120012A201D2
:010685002252
:0205C400AD0781
:1005C600E4FCC2A07F05120012ED30E704D2A18040
:1005D60002C2A17F05120012D2A0ED25E0FD7F0523
:0905E6001200120CBC08DBC2A0DB
:0105EF0022E9
:10062F00E4FC12000EED25E0FD30A103430501C2ED
:0C063F00A07F051200120CBC08E8AF05FB
:01064B00228C
:10066300AD071FED600B7E78EED3940040F21E8041
:01067300F78F
:010674002263
:1004D300EF24FB601314601914601F24037023E5D9
:1004E300A0541F4480F5A022E5A0541F44A0F5A00A
:1004F30022E5A0541F44C0F5A022E5A0541F44E008
:03050300F5A0223E
:060003001204D38D8022DF
:030000000202E910
:0C02E900787FE4F6D8FD75812002033018
:1003CD00BC000BBE0029EF8DF084FFADF022E4CC14
:1003DD00F875F008EF2FFFEE33FEEC33FCEE9DECDD
:1003ED00984005FCEE9DFE0FD5F0E9E4CEFD22ED23
:1003FD00F8F5F0EE8420D21CFEADF075F008EF2F6D
:10040D00FFED33FD4007985006D5F0F222C398FD5D
:05041D000FD5F0EA22FA
:1002F500020506E493A3F8E493A34003F68001F214
:1003050008DFF48029E493A3F85407240CC8C33309
:10031500C4540F4420C8834004F456800146F6DFD8
:10032500E4800B0102040810204080900597E47ECC
:10033500019360BCA3FF543F30E509541FFEE493CD
:10034500A360010ECF54C025E060A840B8E493A394
:10035500FAE493A3F8E493A3C8C582C8CAC583CABF
:10036500F0A3C8C582C8CAC583CADFE9DEE780BE77
:0105C3000037
:00000001FF
