:100DE600C0F9A4B0999282F880908883C6A1868EB5
:100D2400011300040900000000011000010D00027D
:100D34000E0000011100011400010800011500015A
:020D440012FF9C
:0404BF008F08AF13E0
:1004C300EF1470030205E51470030206BE240260F4
:1004D300030209317D017F061200037DC17F0712EC
:1004E30000037F08120DB37DFF7F071200037D0217
:1004F3007F061200037DFF7F071200037F08120DA2
:10050300B37DFF7F071200037D047F061200037D86
:10051300FF7F071200037F08120DB37DFF7F0712D1
:1005230000037D087F061200037DFF7F071200038F
:100533007F08120DB37DFF7F071200037D107F0636
:100543001200037DFF7F071200037F08120DB37DA6
:10055300FF7F071200037D207F06120003AE0EAF5C
:100563000F7C007D6412037D74E62FF582740D3ECB
:10057300F583E493547FFD7F071200037F08120D78
:10058300B37DFF7F071200037D407F06120003AE99
:100593000EAF0F7C007D6412037D7E007F0ACFCDFA
:1005A300CFCECCCE12037D74E62FF582740D3EF5CB
:1005B30083E493FD7F071200037F08120DB37DFFD1
:1005C3007F071200037D807F06120003AE0EAF0F7C
:1005D3007C007D0A12037D74E62DF582740D3C02C6
:1005E300091B7D017F061200037D8C7F0712000328
:1005F3007F08120DB37DFF7F071200037D027F0684
:100603001200037DFF7F071200037F08120DB37DE5
:10061300FF7F071200037D047F061200037DFF7F27
:10062300071200037F08120DB37DFF7F071200033B
:100633007D087F061200037DFF7F071200037F08FA
:10064300120DB37DFF7F071200037D107F0612009A
:10065300037DFF7F071200037F08120DB37DFF7F29
:10066300071200037D207F06120003E51075F00AD0
:1006730084900DE693547FFD7F071200037F0812D9
:100683000DB37DFF7F071200037D407F0612000339
:10069300E51075F00A84E5F0900DE693FD7F0712EF
:1006A30000037F08120DB37DFF7F071200037D80D7
:1006B3007F06120003900DE602091D7D017F0612DD
:1006C30000037DC87F071200037F08120DB37DFF6F
:1006D3007F071200037F407E427D0F7C00AB0CAA94
:1006E3000BA90AA809C31204AE402C7D027F06128F
:1006F30000037B407A42790F7800AF0CAE0BAD0A52
:10070300AC0912040E74E62FF582740D3EF583E4F2
:1007130093FD7F071200037F08120DB37DFF7F0750
:100723001200037FA07E867D017C00AB0CAA0BA97F
:100733000AA809C31204AE403F7D047F06120003DA
:100743007B407A42790F7800AF0CAE0BAD0AAC094F
:1007530012040EAC00AD01AE02AF037BA07A867922
:1007630001780012040E74E62FF582740D3EF583B2
:10077300E493FD7F071200037F08120DB37DFF7F13
:1007830007120003E47F107E27FDFCAB0CAA0BA924
:100793000AA809C31204AE403E7D087F0612000377
:1007A3007BA07A8679017800AF0CAE0BAD0AAC0959
:1007B30012040EAC00AD01AE02AF03E47B107A2746
:1007C300F9F812040E74E62FF582740D3EF583E4F6
:1007D30093FD7F071200037F08120DB37DFF7F0790
:1007E300120003E47FE87E03FDFCAB0CAA0BA90A0D
:1007F300A809C31204AE403D7D107F06120003E436
:100803007B107A27F9F8AF0CAE0BAD0AAC091204D2
:100813000EAC00AD01AE02AF03E47BE87A03F9F856
:1008230012040E74E62FF582740D3EF583E493FDF6
:100833007F071200037F08120DB37DFF7F071200AD
:1008430003E47F64FEFDFCAB0CAA0BA90AA809C351
:100853001204AE403C7D207F06120003E47BE87A5D
:1008630003F9F8AF0CAE0BAD0AAC0912040EAC00E1
:10087300AD01AE02AF03E47B64FAF9F812040E741F
:10088300E62FF582740D3EF583E493FD7F07120096
:10089300037F08120DB37DFF7F07120003E47F0A75
:1008A300FEFDFCAB0CAA0BA90AA809C31204AE40B7
:1008B3003B7D407F06120003E47B64FAF9F8AF0C3A
:1008C300AE0BAD0AAC0912040EAC00AD01AE02AF23
:1008D30003E47B0AFAF9F812040E74E62FF5827426
:1008E3000D3EF583E493FD7F071200037F08120D8D
:1008F300B37DFF7F071200037D807F06120003E4B0
:100903007B0AFAF9F8AF0CAE0BAD0AAC0912040E70
:1009130074E62BF582740D3AF583E493FD7F071299
:0F09230000037F08120DB37DFF7F071200032230
:1009FE007F03120C2F8F0DAC0DE41202B6E4FBFA3E
:100A0E0079A07840120106E4FBFA797F784312024E
:100A1E000FE4FBFA79C87842120106E4FBFAF97882
:100A2E003F1200151202EA8E0E8F0FE514B401313B
:100A3E00AF107E007C007D0A12036BD3E50F9FE59D
:100A4E000E9E501DE4F514E50C2401F50CE4350B57
:100A5E00F50BE4350AF50AE43509F509AF1312046E
:100A6E00C3E50C5401FFE4FEFDFC7B01FAF9F8C36B
:100A7E001204AE70055312FD8003431202AF107EB6
:100A8E00007C007D0A12036BD3E50F9FE50E9E409E
:100A9E0011751401C28C7F04120C9A431201E4F5F5
:080AAE001522D28CE4F514229C
:100AB600C2C4C2C2C2B5C2B4D2B3D2B2D2B1D2B02B
:100AC6007F0A120DB320B305751701801B20B205EE
:100AD600751702801320B105751703800B20B0052A
:100AE6007517048003E4F5177F0A120DB3D2C4D23A
:100AF600C2D2B5D2B4C2B3C2B2C2B1C2B07F0A12B8
:100B06000DB320C405751801801B20C20575180297
:100B1600801320B505751803800B20B405751804DD
:100B26008003E4F518C2C4C2C2C2B5C2B4C2B3C21D
:100B3600B2C2B1C2B0E517600FE518600B25E0251B
:0D0B4600E0251714F5168003E4F516AF1630
:010B5300227F
:10093200120AB68F08E508640C702DE5132401FF36
:10094200E433FE7C007D0312037D8D13E513B402B4
:1009520007AD10E4FF120CF9E4F511E508B40C0838
:10096200120AB61204BF80F3E508B40D22E513643F
:100972000260040511800BE4F50CF50BF50AF5098C
:10098200F511E508B40D08120AB61204BF80F3E5AA
:10099200086410702BE5136401600405118014E5EE
:1009A200102405FFE433FE7C007D3712037D8D1099
:1009B200E4F511E508B41008120AB61204BF80F378
:1009C200E50864117027E5136401600405118010C5
:1009D200E510600624FBF5108003751032E4F51172
:1009E200E508B41108120AB61204BF80F3E511C378
:0C09F200940340045312FB224312042221
:100D4700E4FD7F051200037DFF7F04120003E4F535
:0E0D57000CF50BF50AF509FF120C668F102241
:100DD600758901758C3C758AB0D2A9D2AFC28C22B6
:100D8200120DD6120D471209FEAF131204C3120937
:0A0D920032AD127F0412000380EC62
:03000B00020BE005
:100BE000C0E0C0F0C083C082C0D075D000C000C0DB
:100BF00001C002C003C004C005C006C007758C3C1C
:100C0000758AB00515E515B4640A7F04120C9A5371
:100C100012FEC28CD007D006D005D004D003D0027B
:0F0C2000D001D000D0D0D082D083D0F0D0E0323D
:040E0500D2A07F05F3
:080E090000AE071FEE70F92294
:0F0DF600D2A1120E05C2A17F05120E09C2A022C2
:0C0E1100C2A1120E05D2A17F05020E093D
:100D9C00C2A0A20092A17F05120E09120E05C2A0DC
:070DAC00D2A17F05020E0930
:100DC500120E05A2A19200C2A07F05120E09A20073
:010DD50022FB
:020CCD00AD0771
:100CCF00E4FCC2A07F05120E09ED30E704D2A1802B
:100CDF0002C2A17F05120E09D2A0ED25E0FD7F050E
:090CEF00120E090CBC08DBC2A0C6
:010CF80022D9
:100D6500E4FC120E05ED25E0FD30A103430501C2AB
:0C0D7500A07F05120E090CBC08E8AF05B9
:010D8100224F
:100CF9008F168D17C2AF120DF67FA0120CCD120DF3
:100D0900C5AF16120CCD120DC5AF17120CCD120DB1
:0B0D1900C5120E11D2AF7F14020DB303
:020C66008F16E7
:100C6800C2AF120DF67FA0120CCD120DC5AF161231
:100C78000CCD120DC5120DF67FA1120CCD120DC5AB
:100C8800120D658F17D200120D9C120E11D2AFAF44
:010C98001744
:010C99002238
:020C2F008F161E
:100C3100C2AF120DF67F90120CCD120DC5AF161278
:100C41000CCD120DC5120E11120DF67F91120CCDA5
:100C5100120DC5120D658F17D200120D9C120E11C7
:040C6100D2AFAF1748
:010C6500226C
:100DB300AD071FED600B7E78EED3940040F21E80EA
:010DC300F738
:010DC400220C
:100C9A00EF24FB601314601914601F24037023E50A
:100CAA00A0541F4480F5A022E5A0541F44A0F5A03B
:100CBA0022E5A0541F44C0F5A022E5A0541F44E039
:030CCA00F5A02270
:06000300120C9A8D802210
:10000E00020356E86480F8E933E83360110460F0C7
:10001E00ED33EC337009E8FCE9FDEAFEEBFF220458
:10002E0060DED3EB9FEA9EE99DE8C2E78CF0C2F753
:10003E0095F0400CE8CCF8E9CDF9EACEFAEBCFFB1F
:10004E0012032185D0F05804700320D5B3E8047054
:10005E00075002B2D502036092D5EC0460F7E4CCEF
:10006E00C0E0C398F8603B94186008400DD0E0FBE8
:10007E00020338E4FBFAC9FC8028E830E406E4C940
:10008E00FBE4CAFCE830E305E4C9CACBFCE854073C
:10009E006010F8C3E913F9EA13FAEB13FBEC13FC47
:1000AE00D8F130F52FC3E49CFCEF9BFFEE9AFEEDEA
:1000BE0099FDD0E0FBEF4E4D4C701222DB03020394
:1000CE005DEC2CFCEF33FFEE33FEED33FDED30E750
:1000DE00EB020338EF2BFFEE3AFEED39FDD0E0FBDD
:1000EE0050130BBB0003020360ED13FDEE13FEEF86
:0800FE0013FFEC13FC020338B0
:10010600EC4D6011E8497017ED33EC3304600DE4F3
:10011600FCFFFEFD22E933E8330470F802035612B1
:10012600032158046009E4CC2481500628500902B2
:10013600036028400302035DC0E0EB4A7044B980C7
:1001460006D0E0FB02034CEF4E701CBD8008EBFFAF
:10015600EAFEE9FD80EBE98DF0A4FEE5F00201EF91
:10016600E9CDF9EAFEEBFFEF89F0A4FCE5F0CE89D4
:10017600F0A42EFFE435F0CD89F0A42DFEE435F091
:100186008067EF4E7005BD80D780C3EF8BF0A4ACBF
:10019600F0EE8BF0A42CFCE435F0F8EF8AF0A42CFA
:1001A600E5F038FCE433CB8DF0A42CFCE5F03BF80D
:1001B600EE8AF0A42CFCE5F038F8E433CF89F0A4FD
:1001C6002CFCE5F038CF3400CE89F0A42FFFE5F003
:1001D6003EFEE433C98DF0A42EFEE5F039CD8AF05B
:1001E600A42FFFE5F03EFEE43DFD33D0E0FB5007D3
:1001F6000BBB000F020360EC2CFCEF33FFEE33FE6B
:06020600ED33FD02033898
:10020C00020360EC5D046005E859047003020356B8
:10021C00120321580460F6EC4860F2EC7004FDFE09
:10022C00FF22C860DB2481C85009C39860025006C5
:10023C0002035D9850CAF582E9294B4A7005AB82DE
:10024C0002034C75F0007C1A7880C3EF9BEE9AED9C
:10025C0099400DC3EF9BFFEE9AFEED99FDE842F03D
:10026C00DC23ACF0D0E0FFD0E0FED0E0FDAB822090
:10027C00E7101BEB60BAEC2CFCEF33FFEE33FEED1A
:10028C0033FD020338E803F830E705C0F075F000E1
:10029C00EF2FFFEE33FEED33FD40B830E7C280AAFE
:1002AC0075F020800E75F010800575F0087D007ECD
:1002BC00007F003392D530D5031204A0EC334010EC
:1002CC00EF33FFEE33FEED33FDEC33FCD5F0ED22D6
:0E02DC00E5F0247EA2D513CC92E7CDCEFF2212
:1002EA00EDD2E7CD33EC3392D524814006E4FFFE0C
:1002FA00FDFC22FCE4CFCECDCC24E0501174FF806B
:10030A00EDC3CC13CCCD13CDCE13CECF13CF047007
:07031A00F030D5DE0204A063
:10032100E9D2E7C933E833F892D5EDD2E7CD33EC22
:0703310033FC5002B2D5229B
:10033800EC30E7100FBF000C0EBE00080DBD000426
:100348000BEB6014A2D5EB13FCED92E7FD2274FFD2
:10035800FCFDFEFF22E480F8A2D574FF13FC7D802B
:03036800E480EF3F
:03000000020B549C
:0C0B5400787FE4F6D8FD758120020B9B31
:10036B00EF8DF0A4A8F0CF8CF0A428CE8DF0A42EA6
:02037B00FE2260
:10037D00BC000BBE0029EF8DF084FFADF022E4CC64
:10038D00F875F008EF2FFFEE33FEEC33FCEE9DEC2D
:10039D00984005FCEE9DFE0FD5F0E9E4CEFD22ED73
:1003AD00F8F5F0EE8420D21CFEADF075F008EF2FBD
:1003BD00FFED33FD4007985006D5F0F222C398FDAE
:0503CD000FD5F0EA224B
:1003D20075F008758200EF2FFFEE33FECD33CDCCE2
:1003E20033CCC58233C5829BED9AEC99E582984065
:1003F2000CF582EE9BFEED9AFDEC99FC0FD5F0D642
:10040200E4CEFBE4CDFAE4CCF9A88222B800C1B96B
:100412000059BA002DEC8BF084CFCECDFCE5F0CBA9
:10042200F97818EF2FFFEE33FEED33FDEC33FCEBE2
:1004320033FB10D703994004EB99FB0FD8E5E4F99D
:10044200FA227818EF2FFFEE33FEED33FDEC33FC8A
:10045200C933C910D7059BE99A4007EC9BFCE99A7E
:10046200F90FD8E0E4C9FAE4CCFB2275F010EF2FC3
:10047200FFEE33FEED33FDCC33CCC833C810D707C3
:100482009BEC9AE899400AED9BFDEC9AFCE899F8FE
:0E0492000FD5F0DAE4CDFBE4CCFAE4C8F92291
:0E04A000C3E49FFFE49EFEE49DFDE49CFC226D
:1004AE00EB9FF5F0EA9E42F0E99D42F0E89C45F0A4
:0104BE00221B
:100B6000020D82E493A3F8E493A34003F68001F21C
:100B700008DFF48029E493A3F85407240CC8C33396
:100B8000C4540F4420C8834004F456800146F6DF65
:100B9000E4800B0102040810204080900D24E47EC4
:100BA000019360BCA3FF543F30E509541FFEE4935A
:100BB000A360010ECF54C025E060A840B8E493A321
:100BC000FAE493A3F8E493A3C8C582C8CAC583CA4C
:100BD000F0A3C8C582C8CAC583CADFE9DEE780BE04
:010D460000AC
:00000001FF
