:100F3000070A220701022359500315000000011877
:080F400000011100020800008D
:100F6100E4FD7F05120FE47DFF7F04120FE47B0097
:070F71007A00790A020D7BF2
:100EB90020B01D20B01AE511701630B0FD0518E5F7
:100EC90018B4040C7B007A00790A120D7BE4F5183A
:010ED90022F6
:100F490020B11420B111E518700D30B1FD0511E57E
:080F590011B40403E4F51122B8
:10087D0030B20302093220B255E518605120B21D85
:10088D0075240075250075260A75270075280075D5
:10089D002915AB11AD187F0A1204B080E0E51824BC
:1008AD00FE601314601C2402707BC3E50E648094FB
:1008BD00985072050E22C3E50F648094BB506605F7
:1008CD000F22C3E510648094BB505A05102220B24C
:1008DD0054E511605020B21D752400752500752654
:1008ED000A752700752800752915AB11AD187F0AFB
:1008FD001204B080E0E51124FE601314601C240284
:10090D007023C3E51564809498501A051522C3E52C
:10091D0016648094BB500E051622C3E517648094AF
:06092D00BB500205172279
:1003D30030B30302049220B35EE518605A20B31DC4
:1003E30075240075250075260A7527007528007584
:1003F3002915AB11AD187F0A1204B080E0E518246B
:10040300FE6019146025240260030204AFD3E50ED5
:100413006480948050030204AF150E22D3E50F6469
:1004230080948050030204AF150F22D3E51064803B
:100433009480407815102220B372E511606E20B3CA
:100443001D75240075250075260A7527007528007B
:10045300752915AB11AD187F0A1204B080E0E511C0
:1004630024FE601314601C24027041D3E5156480DC
:1004730094804038151522D3E51664809480402C6F
:10048300151622D3E5176480948040201517222087
:10049300B31AE5187016E511701220B30F20B30CD0
:0D04A300120CFC8E088F09120A8980F122CC
:0C0FD000120EB9120F4912087D0203D363
:100EDA00120FD075240075250075260A752700752E
:0E0EEA002800752915AB11AD187F640204B005
:080FDC00120F61120EDA80FB16
:100F8C00E4FEC297EF1392A3EFC313FFD2970EBEEA
:020F9C0008F05B
:010F9E002230
:100F7800C29300C29700D29300120F8CAF05120FD4
:040F88008CC2932262
:100E2B00E4FDC29300C29700D29300120F8CE4FF33
:100E3B00C297EDC313FD30A303430580D2970FBFB9
:100E4B0008EEC29300C29700D29700C2A300D2A3B0
:030E5B0000AF05E0
:010E5E002271
:100D7B00E4FD7F8E120F781202C0FD7F8C120F786C
:100D8B009000011202D9FD7F8A120F789000021297
:100D9B0002D9FD7F88120F789000031202D9FD7FD4
:100DAB0086120F789000041202D9FD7F84120F78FF
:100DBB009000051202D9FD7F82120F789000061267
:0F0DCB0002D9FD7F80120F787D807F8E020F7816
:100DDA007F8D120E2BEF1203067F8B120E2B9000C3
:100DEA0001EF1203187F89120E2B900002EF1203F3
:100DFA00187F87120E2B900003EF1203187F8512BB
:100E0A000E2B900004EF1203187F83120E2B900012
:100E1A0005EF1203187F81120E2B900006EF0203D2
:010E2A0018AF
:040FC1007F327E00FD
:0B0FC500EF1FAC0670011E4C70F622FE
:020EF800AD0744
:100EFA00E4FBC294ED139294120FC1D294EDC31382
:0C0F0A00FD0BBB08ED7F327E00020FC51E
:100F1600E4FBC294EDC313FDD294309403430580E1
:090F2600120FC10BBB08EBAF0573
:010F2F00229F
:100E9200C200D2947F787E00120FC5C2947F207E5A
:100EA20003120FC5D2947F647E00120FC5A29492E2
:060EB20000120FC1A200B6
:010EB8002217
:100CFC00120E927FCC120EF87F44120EF8120E9246
:100D0C007FCC120EF87FBE120EF8120F16AA071225
:100D1C000F16AD07EDFEEAFBEBFFED30E032EFF422
:100D2C00FFEEF4FEEF2401FFE43EFEAD07FC1202E1
:100D3C0006E4FBFA7980783D1200FBE4FBFAF978C3
:100D4C003F12000A12023FC3E49FFFE49EFE801E86
:100D5C00AD07AC06EC120206E4FBFA7980783D1282
:0E0D6C0000FBE4FBFAF9783F12000A12023F86
:010D7A002256
:100F9F00AD071FED600B7E78EED3940040F21E80FC
:010FAF00F74A
:010FB000221E
:100E5F00EF24FB601314601914601F24037023E543
:100E6F00A0541F4480F5A022E5A0541F44A0F5A074
:100E7F0022E5A0541F44C0F5A022E5A0541F44E072
:030E8F00F5A022A9
:060FE400120E5F8D802259
:100FB100C0F9A4B0999282F880908883C6A1868EE8
:0607BF008B2B8A2C892D12
:1007C500E4F52EAF2E7401A807088002C333D8FCC8
:1007D500FD7F06120FE4E52EB4080040030208640D
:1007E5009007ECF828287302080402080F02081A7B
:1007F50002081C02082702081A02083602084CAB38
:100805002BAA2CA92D9000048030AB2BAA2CA92D46
:10081500900004803B8016AB2BAA2CA92D900005D7
:100825008018AB2BAA2CA92D90000580237DBF80B5
:1008350029AB2BAA2CA92D9000061202D9C4540F5E
:10084500900FB193FD8013AB2BAA2CA92D90000618
:100855001202D9540F900FB193FD7F07120FE47F59
:1008650008120F9F7DFF7F07120FE4052EE52EC3AB
:07087500940850030207C8BC
:01087C002259
:06063D008B2B8A2C892D95
:10064300E4F52EAF2E7401A807088002C333D8FC4B
:10065300FD7F06120FE4E52EB4080040030206E511
:1006630090066AF828287302068202068402068826
:1006730002068C0206A20206880206B70206CD8095
:10068300007DFF80587DBF8054AB2BAA2CA92D90F1
:1006930000051202D9C4540F900FB193FD803EABF5
:1006A3002BAA2CA92D9000051202D9540F900FB13B
:1006B30093FD8029AB2BAA2CA92D9000061202D9F9
:1006C300C4540F900FB193FD8013AB2BAA2CA92D0B
:1006D3009000061202D9540F900FB193FD7F0712B9
:1006E3000FE47F08120F9F7DFF7F07120FE4052E93
:0A06F300E52EC394085003020646EA
:0106FD0022DA
:060933008B2B8A2C892D9C
:10093900E4F52EAF2E7401A807088002C333D8FC52
:10094900FD7F06120FE4E52EB40800506F90095D93
:10095900F828287302097502098002098B02098D9A
:1009690002098F02098B0209970209ADAB2BAA2C48
:10097900A92D9000048020AB2BAA2CA92D9000044E
:10098900802B800680007DFF802D7DBF8029AB2BC9
:10099900AA2CA92D9000061202D9C4540F900FB1A8
:1009A90093FD8013AB2BAA2CA92D9000061202D916
:1009B900540F900FB193FD7F07120FE47F08120FB8
:1009C9009F7DFF7F07120FE4052EE52EC394085083
:0409D9000302093CD0
:0109DD0022F7
:060B2C008B2B8A2C892DA1
:100B3200E4F52EAF2E7401A807088002C333D8FC57
:100B4200FD7F06120FE4E52EB408005066900B56A6
:100B5200F8282873020B6E020B79020B84020B86B3
:100B6200020B95020BAA020BAE020BAEAB2BAA2C08
:100B7200A92D9000048016AB2BAA2CA92D9000045D
:100B8200801A8024AB2BAA2CA92D9000051202D921
:100B9200C4800CAB2BAA2CA92D9000051202D954AB
:100BA2000F900FB193FD80067DBF80027DFF7F070E
:100BB200120FE47F08120F9F7DFF7F07120FE405DB
:0B0BC2002EE52EC394085003020B35F3
:010BCD002205
:060578008B2B8A2C892D5B
:10057E00E4F52EAF2E7401A807088002C333D8FC11
:10058E00FD7F06120FE4E52EB40800400302062498
:10059E009005A5F82828730205BD0205C80205D3EB
:1005AE000205D50205E40205D30205F602060CABE0
:1005BE002BAA2CA92D1202C08019AB2BAA2CA92D67
:1005CE001202C08030801DAB2BAA2CA92D900001E9
:1005DE001202D9C4801FAB2BAA2CA92D9000011298
:1005EE0002D980117DBF8029AB2BAA2CA92D90009A
:1005FE00021202D9C4540F900FB193FD8013AB2B8E
:10060E00AA2CA92D9000021202D9540F900FB1936B
:10061E00FD7F07120FE47F08120F9F7DFF7F0712E9
:0E062E000FE4052EE52EC3940850030205814B
:01063C00229B
:0606FE008B2B8A2C892DD4
:10070400E4F52EAF2E7401A807088002C333D8FC89
:10071400FD7F06120FE4E52EB4080040030207A68D
:1007240090072BF82828730207430207450207495C
:1007340002074D02076302074902077802078E8009
:10074400007DFF80587DBF8054AB2BAA2CA92D902F
:1007540000011202D9C4540F900FB193FD803EAB37
:100764002BAA2CA92D9000011202D9540F900FB17D
:1007740093FD8029AB2BAA2CA92D9000021202D93B
:10078400C4540F900FB193FD8013AB2BAA2CA92D49
:100794009000021202D9540F900FB193FD7F0712FB
:1007A4000FE47F08120F9F7DFF7F07120FE4052ED1
:0A07B400E52EC39408500302070766
:0107BE002218
:0609DE008B2B8A2C892DF1
:1009E400E4F52EAF2E7401A807088002C333D8FCA7
:1009F400FD7F06120FE4E52EB40800506F900A083C
:100A0400F8282873020A20020A2B020A36020A383E
:100A1400020A3A020A36020A42020A58AB2BAA2CEC
:100A2400A92D1202C08023AB2BAA2CA92D1202C01F
:100A34008019800680007DFF802D7DBF8029AB2B2F
:100A4400AA2CA92D9000021202D9C4540F900FB100
:100A540093FD8013AB2BAA2CA92D9000021202D96E
:100A6400540F900FB193FD7F07120FE47F08120F0C
:100A74009F7DFF7F07120FE4052EE52EC3940850D7
:040A8400030209E779
:010A8800224B
:060BCE008B2B8A2C892DFF
:100BD400E4F52EAF2E7401A807088002C333D8FCB5
:100BE400FD7F06120FE4E52EB408005066900BF862
:100BF400F8282873020C10020C1B020C26020C2885
:100C0400020C37020C4C020C50020C50AB2BAA2CD9
:100C1400A92D1202C08019AB2BAA2CA92D1202C037
:100C2400801D8024AB2BAA2CA92D9000011202D97F
:100C3400C4800CAB2BAA2CA92D9000011202D9540C
:100C44000F900FB193FD80067DBF80027DFF7F076B
:100C5400120FE47F08120F9F7DFF7F07120FE40538
:0B0C64002EE52EC394085003020BD7AE
:010C6F002262
:0604B0008F218D228B2339
:1004B60085212AE523701FE5227009AB24AA25A908
:1004C60026120DDAAF2A152AEF601DAB24AA25A93C
:1004D600261207BF80EEAF2A152AEF600BAB27AABC
:1004E60028A92912057880EE85212AE52224FE60B6
:1004F6001914602824027036AF2A152AEF602FAB34
:1005060024AA25A92612063D80EEAF2A152AEF60F9
:100516001DAB24AA25A92612093380EEAF2A152A77
:10052600EF600BAB24AA25A926120B2C80EEE5233F
:1005360024FE601914602824027036AF2A152AEFAB
:10054600602FAB27AA28A9291206FE80EEAF2A152E
:100556002AEF601DAB27AA28A9291209DE80EEAF73
:100566002A152AEF600BAB27AA28A929120BCE80E1
:01057600EE96
:010577002261
:040A89008E218F2209
:100A8D00E4F523AF237401A807088002C333D8FC13
:100A9D00FD7F06120FE4E523B408005069900AB1FA
:100AAD00F8282873020ACB020ACB020ACB020ACB22
:100ABD00020ACB020ACB020ACF020AF680007DFFA2
:100ACD00803FC3E522940AE521648094804037AECF
:100ADD0021AF227C007D0A12033A74B12FF5827486
:100AED000F3EF583E493FD8018AE21AF227C007D8F
:100AFD000A12033A74B12DF582740F3CF583E49319
:100B0D00FD7F07120FE47F08120F9F7DFF7F0712F5
:0E0B1D000FE40523E523C394085003020A9059
:010B2B0022A7
:100003000202ABE86480F8E933E83360110460F07E
:10001300ED33EC337009E8FCE9FDEAFEEBFF220463
:1000230060DED3EB9FEA9EE99DE8C2E78CF0C2F75E
:1000330095F0400CE8CCF8E9CDF9EACEFAEBCFFB2A
:1000430012027685D0F05804700320D5B3E804700B
:10005300075002B2D50202B592D5EC0460F7E4CCA6
:10006300C0E0C398F8603B94186008400DD0E0FBF3
:1000730002028DE4FBFAC9FC8028E830E406E4C9F7
:10008300FBE4CAFCE830E305E4C9CACBFCE8540747
:100093006010F8C3E913F9EA13FAEB13FBEC13FC52
:1000A300D8F130F52FC3E49CFCEF9BFFEE9AFEEDF5
:1000B30099FDD0E0FBEF4E4D4C701222DB030202A0
:1000C300B2EC2CFCEF33FFEE33FEED33FDED30E706
:1000D300EB02028DEF2BFFEE3AFEED39FDD0E0FB94
:1000E30050130BBB00030202B5ED13FDEE13FEEF3D
:0800F30013FFEC13FC02028D67
:1000FB00EC4D6011E8497017ED33EC3304600DE4FF
:10010B00FCFFFEFD22E933E8330470F80202AB1268
:10011B00027658046009E4CC248150062850090269
:10012B0002B52840030202B2C0E0EB4A7044B9802A
:10013B0006D0E0FB0202A1EF4E701CBD8008EBFF66
:10014B00EAFEE9FD80EBE98DF0A4FEE5F00201E4A7
:10015B00E9CDF9EAFEEBFFEF89F0A4FCE5F0CE89DF
:10016B00F0A42EFFE435F0CD89F0A42DFEE435F09C
:10017B008067EF4E7005BD80D780C3EF8BF0A4ACCA
:10018B00F0EE8BF0A42CFCE435F0F8EF8AF0A42C05
:10019B00E5F038FCE433CB8DF0A42CFCE5F03BF818
:1001AB00EE8AF0A42CFCE5F038F8E433CF89F0A408
:1001BB002CFCE5F038CF3400CE89F0A42FFFE5F00E
:1001CB003EFEE433C98DF0A42EFEE5F039CD8AF066
:1001DB00A42FFFE5F03EFEE43DFD33D0E0FB5007DE
:1001EB000BBB000F0202B5EC2CFCEF33FFEE33FE22
:0601FB00ED33FD02028D50
:1002010075F020800E75F010800575F0087D007E78
:10021100007F003392D530D503120370EC334010C8
:10022100EF33FFEE33FEED33FDEC33FCD5F0ED2281
:0E023100E5F0247EA2D513CC92E7CDCEFF22BD
:10023F00EDD2E7CD33EC3392D524814006E4FFFEB7
:10024F00FDFC22FCE4CFCECDCC24E0501174FF8016
:10025F00EDC3CC13CCCD13CDCE13CECF13CF0470B3
:07026F00F030D5DE02037040
:10027600E9D2E7C933E833F892D5EDD2E7CD33ECCE
:0702860033FC5002B2D52247
:10028D00EC30E7100FBF000C0EBE00080DBD0004D2
:10029D000BEB6014A2D5EB13FCED92E7FD2274FF7E
:1002AD00FCFDFEFF22E480F8A2D574FF13FC7D80D7
:0302BD00E480EFEB
:03000000020C707F
:0C0C7000787FE4F6D8FD75812E020CB7E9
:1002C000BB010689828A83E0225002E722BBFE023C
:0902D000E32289828A83E493226F
:1002D900BB010CE58229F582E5833AF583E02250DA
:1002E90006E92582F8E622BBFE06E92582F8E22224
:0D02F900E58229F582E5833AF583E493223E
:10030600BB010689828A83F0225002F722BBFE01D6
:02031600F322D0
:10031800F8BB010DE58229F582E5833AF583E8F01B
:10032800225006E92582C8F622BBFE05E92582C8C7
:02033800F222AF
:10033A00C2D5EC30E709B2D5E4C39DFDE49CFCEEDE
:10034A0030E715B2D5E4C39FFFE49EFE12037EC3D5
:10035A00E49DFDE49CFC800312037E30D507C3E4D0
:06036A009FFFE49EFE224D
:0E037000C3E49FFFE49EFEE49DFDE49CFC229E
:100C7C00020FDCE493A3F8E493A34003F68001F2A3
:100C8C0008DFF48029E493A3F85407240CC8C33379
:100C9C00C4540F4420C8834004F456800146F6DF48
:100CAC00E4800B0102040810204080900F30E47E99
:100CBC00019360BCA3FF543F30E509541FFEE4933D
:100CCC00A360010ECF54C025E060A840B8E493A304
:100CDC00FAE493A3F8E493A3C8C582C8CAC583CA2F
:100CEC00F0A3C8C582C8CAC583CADFE9DEE780BEE7
:010F480000A8
:10037E00BC000BBE0029EF8DF084FFADF022E4CC63
:10038E00F875F008EF2FFFEE33FEEC33FCEE9DEC2C
:10039E00984005FCEE9DFE0FD5F0E9E4CEFD22ED72
:1003AE00F8F5F0EE8420D21CFEADF075F008EF2FBC
:1003BE00FFED33FD4007985006D5F0F222C398FDAD
:0503CE000FD5F0EA224A
:00000001FF
